{
  "contractName": "DSMultiVault",
  "abi": [
    {
      "constant": false,
      "inputs": [
        {
          "name": "owner_",
          "type": "address"
        }
      ],
      "name": "setOwner",
      "outputs": [],
      "payable": false,
      "stateMutability": "nonpayable",
      "type": "function"
    },
    {
      "constant": false,
      "inputs": [
        {
          "name": "authority_",
          "type": "address"
        }
      ],
      "name": "setAuthority",
      "outputs": [],
      "payable": false,
      "stateMutability": "nonpayable",
      "type": "function"
    },
    {
      "constant": true,
      "inputs": [],
      "name": "owner",
      "outputs": [
        {
          "name": "",
          "type": "address"
        }
      ],
      "payable": false,
      "stateMutability": "view",
      "type": "function"
    },
    {
      "constant": true,
      "inputs": [],
      "name": "authority",
      "outputs": [
        {
          "name": "",
          "type": "address"
        }
      ],
      "payable": false,
      "stateMutability": "view",
      "type": "function"
    },
    {
      "anonymous": false,
      "inputs": [
        {
          "indexed": true,
          "name": "authority",
          "type": "address"
        }
      ],
      "name": "LogSetAuthority",
      "type": "event"
    },
    {
      "anonymous": false,
      "inputs": [
        {
          "indexed": true,
          "name": "owner",
          "type": "address"
        }
      ],
      "name": "LogSetOwner",
      "type": "event"
    },
    {
      "constant": false,
      "inputs": [
        {
          "name": "token",
          "type": "address"
        },
        {
          "name": "dst",
          "type": "address"
        },
        {
          "name": "wad",
          "type": "uint256"
        }
      ],
      "name": "push",
      "outputs": [],
      "payable": false,
      "stateMutability": "nonpayable",
      "type": "function"
    },
    {
      "constant": false,
      "inputs": [
        {
          "name": "token",
          "type": "address"
        },
        {
          "name": "dst",
          "type": "address"
        }
      ],
      "name": "push",
      "outputs": [],
      "payable": false,
      "stateMutability": "nonpayable",
      "type": "function"
    },
    {
      "constant": false,
      "inputs": [
        {
          "name": "token",
          "type": "address"
        },
        {
          "name": "src",
          "type": "address"
        }
      ],
      "name": "pull",
      "outputs": [],
      "payable": false,
      "stateMutability": "nonpayable",
      "type": "function"
    },
    {
      "constant": false,
      "inputs": [
        {
          "name": "token",
          "type": "address"
        },
        {
          "name": "src",
          "type": "address"
        },
        {
          "name": "wad",
          "type": "uint256"
        }
      ],
      "name": "pull",
      "outputs": [],
      "payable": false,
      "stateMutability": "nonpayable",
      "type": "function"
    },
    {
      "constant": false,
      "inputs": [
        {
          "name": "token",
          "type": "address"
        },
        {
          "name": "wad",
          "type": "uint256"
        }
      ],
      "name": "mint",
      "outputs": [],
      "payable": false,
      "stateMutability": "nonpayable",
      "type": "function"
    },
    {
      "constant": false,
      "inputs": [
        {
          "name": "token",
          "type": "address"
        },
        {
          "name": "guy",
          "type": "address"
        },
        {
          "name": "wad",
          "type": "uint256"
        }
      ],
      "name": "mint",
      "outputs": [],
      "payable": false,
      "stateMutability": "nonpayable",
      "type": "function"
    },
    {
      "constant": false,
      "inputs": [
        {
          "name": "token",
          "type": "address"
        }
      ],
      "name": "burn",
      "outputs": [],
      "payable": false,
      "stateMutability": "nonpayable",
      "type": "function"
    },
    {
      "constant": false,
      "inputs": [
        {
          "name": "token",
          "type": "address"
        },
        {
          "name": "wad",
          "type": "uint256"
        }
      ],
      "name": "burn",
      "outputs": [],
      "payable": false,
      "stateMutability": "nonpayable",
      "type": "function"
    },
    {
      "constant": false,
      "inputs": [
        {
          "name": "token",
          "type": "address"
        },
        {
          "name": "guy",
          "type": "address"
        },
        {
          "name": "wad",
          "type": "uint256"
        }
      ],
      "name": "burn",
      "outputs": [],
      "payable": false,
      "stateMutability": "nonpayable",
      "type": "function"
    }
  ],
  "bytecode": "0x606060405233600160006101000a81548173ffffffffffffffffffffffffffffffffffffffff021916908373ffffffffffffffffffffffffffffffffffffffff1602179055503373ffffffffffffffffffffffffffffffffffffffff167fce241d7ca1f669fee44b6fc00b8eba2df3bb514eed0f6f668f8f89096e81ed9460405160405180910390a261123a806100976000396000f3006060604052600436106100c5576000357c0100000000000000000000000000000000000000000000000000000000900463ffffffff16806313af4035146100ca57806326e8eda21461010357806340c10f191461016457806366b3bcb0146101a65780637372c2b5146101fe5780637a9e5e4b1461025f57806389afcb44146102985780638da5cb5b146102d15780639dc29fac14610326578063b716ba6714610368578063bf7e214f146103c0578063c6c3bbe614610415578063f6b911bc14610476575b600080fd5b34156100d557600080fd5b610101600480803573ffffffffffffffffffffffffffffffffffffffff169060200190919050506104d7565b005b341561010e57600080fd5b610162600480803573ffffffffffffffffffffffffffffffffffffffff1690602001909190803573ffffffffffffffffffffffffffffffffffffffff169060200190919080359060200190919050506105b9565b005b341561016f57600080fd5b6101a4600480803573ffffffffffffffffffffffffffffffffffffffff169060200190919080359060200190919050506106c8565b005b34156101b157600080fd5b6101fc600480803573ffffffffffffffffffffffffffffffffffffffff1690602001909190803573ffffffffffffffffffffffffffffffffffffffff16906020019091905050610787565b005b341561020957600080fd5b61025d600480803573ffffffffffffffffffffffffffffffffffffffff1690602001909190803573ffffffffffffffffffffffffffffffffffffffff16906020019091908035906020019091905050610853565b005b341561026a57600080fd5b610296600480803573ffffffffffffffffffffffffffffffffffffffff16906020019091905050610996565b005b34156102a357600080fd5b6102cf600480803573ffffffffffffffffffffffffffffffffffffffff16906020019091905050610a76565b005b34156102dc57600080fd5b6102e4610bf1565b604051808273ffffffffffffffffffffffffffffffffffffffff1673ffffffffffffffffffffffffffffffffffffffff16815260200191505060405180910390f35b341561033157600080fd5b610366600480803573ffffffffffffffffffffffffffffffffffffffff16906020019091908035906020019091905050610c17565b005b341561037357600080fd5b6103be600480803573ffffffffffffffffffffffffffffffffffffffff1690602001909190803573ffffffffffffffffffffffffffffffffffffffff16906020019091905050610cd6565b005b34156103cb57600080fd5b6103d3610da2565b604051808273ffffffffffffffffffffffffffffffffffffffff1673ffffffffffffffffffffffffffffffffffffffff16815260200191505060405180910390f35b341561042057600080fd5b610474600480803573ffffffffffffffffffffffffffffffffffffffff1690602001909190803573ffffffffffffffffffffffffffffffffffffffff16906020019091908035906020019091905050610dc7565b005b341561048157600080fd5b6104d5600480803573ffffffffffffffffffffffffffffffffffffffff1690602001909190803573ffffffffffffffffffffffffffffffffffffffff16906020019091908035906020019091905050610ebb565b005b610505336000357fffffffff0000000000000000000000000000000000000000000000000000000016610faf565b151561051057600080fd5b80600160006101000a81548173ffffffffffffffffffffffffffffffffffffffff021916908373ffffffffffffffffffffffffffffffffffffffff160217905550600160009054906101000a900473ffffffffffffffffffffffffffffffffffffffff1673ffffffffffffffffffffffffffffffffffffffff167fce241d7ca1f669fee44b6fc00b8eba2df3bb514eed0f6f668f8f89096e81ed9460405160405180910390a250565b6105e7336000357fffffffff0000000000000000000000000000000000000000000000000000000016610faf565b15156105f257600080fd5b8273ffffffffffffffffffffffffffffffffffffffff1663a9059cbb83836000604051602001526040518363ffffffff167c0100000000000000000000000000000000000000000000000000000000028152600401808373ffffffffffffffffffffffffffffffffffffffff1673ffffffffffffffffffffffffffffffffffffffff16815260200182815260200192505050602060405180830381600087803b151561069d57600080fd5b6102c65a03f115156106ae57600080fd5b5050506040518051905015156106c357600080fd5b505050565b6106f6336000357fffffffff0000000000000000000000000000000000000000000000000000000016610faf565b151561070157600080fd5b8173ffffffffffffffffffffffffffffffffffffffff1663a0712d68826040518263ffffffff167c010000000000000000000000000000000000000000000000000000000002815260040180828152602001915050600060405180830381600087803b151561076f57600080fd5b6102c65a03f1151561078057600080fd5b5050505050565b61084f82828473ffffffffffffffffffffffffffffffffffffffff166370a08231856000604051602001526040518263ffffffff167c0100000000000000000000000000000000000000000000000000000000028152600401808273ffffffffffffffffffffffffffffffffffffffff1673ffffffffffffffffffffffffffffffffffffffff168152602001915050602060405180830381600087803b151561082f57600080fd5b6102c65a03f1151561084057600080fd5b50505060405180519050610853565b5050565b610881336000357fffffffff0000000000000000000000000000000000000000000000000000000016610faf565b151561088c57600080fd5b8273ffffffffffffffffffffffffffffffffffffffff166323b872dd8330846000604051602001526040518463ffffffff167c0100000000000000000000000000000000000000000000000000000000028152600401808473ffffffffffffffffffffffffffffffffffffffff1673ffffffffffffffffffffffffffffffffffffffff1681526020018373ffffffffffffffffffffffffffffffffffffffff1673ffffffffffffffffffffffffffffffffffffffff1681526020018281526020019350505050602060405180830381600087803b151561096b57600080fd5b6102c65a03f1151561097c57600080fd5b50505060405180519050151561099157600080fd5b505050565b6109c4336000357fffffffff0000000000000000000000000000000000000000000000000000000016610faf565b15156109cf57600080fd5b806000806101000a81548173ffffffffffffffffffffffffffffffffffffffff021916908373ffffffffffffffffffffffffffffffffffffffff1602179055506000809054906101000a900473ffffffffffffffffffffffffffffffffffffffff1673ffffffffffffffffffffffffffffffffffffffff167f1abebea81bfa2637f28358c371278fb15ede7ea8dd28d2e03b112ff6d936ada460405160405180910390a250565b610aa4336000357fffffffff0000000000000000000000000000000000000000000000000000000016610faf565b1515610aaf57600080fd5b8073ffffffffffffffffffffffffffffffffffffffff166342966c688273ffffffffffffffffffffffffffffffffffffffff166370a08231306000604051602001526040518263ffffffff167c0100000000000000000000000000000000000000000000000000000000028152600401808273ffffffffffffffffffffffffffffffffffffffff1673ffffffffffffffffffffffffffffffffffffffff168152602001915050602060405180830381600087803b1515610b6e57600080fd5b6102c65a03f11515610b7f57600080fd5b505050604051805190506040518263ffffffff167c010000000000000000000000000000000000000000000000000000000002815260040180828152602001915050600060405180830381600087803b1515610bda57600080fd5b6102c65a03f11515610beb57600080fd5b50505050565b600160009054906101000a900473ffffffffffffffffffffffffffffffffffffffff1681565b610c45336000357fffffffff0000000000000000000000000000000000000000000000000000000016610faf565b1515610c5057600080fd5b8173ffffffffffffffffffffffffffffffffffffffff166342966c68826040518263ffffffff167c010000000000000000000000000000000000000000000000000000000002815260040180828152602001915050600060405180830381600087803b1515610cbe57600080fd5b6102c65a03f11515610ccf57600080fd5b5050505050565b610d9e82828473ffffffffffffffffffffffffffffffffffffffff166370a08231306000604051602001526040518263ffffffff167c0100000000000000000000000000000000000000000000000000000000028152600401808273ffffffffffffffffffffffffffffffffffffffff1673ffffffffffffffffffffffffffffffffffffffff168152602001915050602060405180830381600087803b1515610d7e57600080fd5b6102c65a03f11515610d8f57600080fd5b505050604051805190506105b9565b5050565b6000809054906101000a900473ffffffffffffffffffffffffffffffffffffffff1681565b610df5336000357fffffffff0000000000000000000000000000000000000000000000000000000016610faf565b1515610e0057600080fd5b8273ffffffffffffffffffffffffffffffffffffffff166340c10f1983836040518363ffffffff167c0100000000000000000000000000000000000000000000000000000000028152600401808373ffffffffffffffffffffffffffffffffffffffff1673ffffffffffffffffffffffffffffffffffffffff16815260200182815260200192505050600060405180830381600087803b1515610ea257600080fd5b6102c65a03f11515610eb357600080fd5b505050505050565b610ee9336000357fffffffff0000000000000000000000000000000000000000000000000000000016610faf565b1515610ef457600080fd5b8273ffffffffffffffffffffffffffffffffffffffff16639dc29fac83836040518363ffffffff167c0100000000000000000000000000000000000000000000000000000000028152600401808373ffffffffffffffffffffffffffffffffffffffff1673ffffffffffffffffffffffffffffffffffffffff16815260200182815260200192505050600060405180830381600087803b1515610f9657600080fd5b6102c65a03f11515610fa757600080fd5b505050505050565b60003073ffffffffffffffffffffffffffffffffffffffff168373ffffffffffffffffffffffffffffffffffffffff161415610fee5760019050611208565b600160009054906101000a900473ffffffffffffffffffffffffffffffffffffffff1673ffffffffffffffffffffffffffffffffffffffff168373ffffffffffffffffffffffffffffffffffffffff16141561104d5760019050611208565b600073ffffffffffffffffffffffffffffffffffffffff166000809054906101000a900473ffffffffffffffffffffffffffffffffffffffff1673ffffffffffffffffffffffffffffffffffffffff1614156110ac5760009050611208565b6000809054906101000a900473ffffffffffffffffffffffffffffffffffffffff1673ffffffffffffffffffffffffffffffffffffffff1663b70096138430856000604051602001526040518463ffffffff167c0100000000000000000000000000000000000000000000000000000000028152600401808473ffffffffffffffffffffffffffffffffffffffff1673ffffffffffffffffffffffffffffffffffffffff1681526020018373ffffffffffffffffffffffffffffffffffffffff1673ffffffffffffffffffffffffffffffffffffffff168152602001827bffffffffffffffffffffffffffffffffffffffffffffffffffffffff19167bffffffffffffffffffffffffffffffffffffffffffffffffffffffff191681526020019350505050602060405180830381600087803b15156111ea57600080fd5b6102c65a03f115156111fb57600080fd5b5050506040518051905090505b929150505600a165627a7a72305820f2301617380661701b0679b56eed1fb7b620d7d2bd39559bf50bf4fab023f6830029",
  "source": "// multivault.sol -- vault for holding different kinds of ERC20 tokens\n\n// Copyright (C) 2017  DappHub, LLC\n\n// This program is free software: you can redistribute it and/or modify\n// it under the terms of the GNU General Public License as published by\n// the Free Software Foundation, either version 3 of the License, or\n// (at your option) any later version.\n\n// This program is distributed in the hope that it will be useful,\n// but WITHOUT ANY WARRANTY; without even the implied warranty of\n// MERCHANTABILITY or FITNESS FOR A PARTICULAR PURPOSE.  See the\n// GNU General Public License for more details.\n\n// You should have received a copy of the GNU General Public License\n// along with this program.  If not, see <http://www.gnu.org/licenses/>.\n\npragma solidity ^0.4.13;\n\nimport \"./auth.sol\";\nimport \"./token.sol\";\n\ncontract DSMultiVault is DSAuth {\n    function push(ERC20 token, address dst, uint wad) public auth {\n        require(token.transfer(dst, wad));\n    }\n    function pull(ERC20 token, address src, uint wad) public auth {\n        require(token.transferFrom(src, this, wad));\n    }\n\n    function push(ERC20 token, address dst) public {\n        push(token, dst, token.balanceOf(this));\n    }\n    function pull(ERC20 token, address src) public {\n        pull(token, src, token.balanceOf(src));\n    }\n\n    function mint(DSToken token, uint wad) public auth {\n        token.mint(wad);\n    }\n    function burn(DSToken token, uint wad) public auth {\n        token.burn(wad);\n    }\n    function mint(DSToken token, address guy, uint wad) public auth {\n        token.mint(guy, wad);\n    }\n    function burn(DSToken token, address guy, uint wad) public auth {\n        token.burn(guy, wad);\n    }\n\n    function burn(DSToken token) public auth {\n        token.burn(token.balanceOf(this));\n    }\n}\n",
  "sourcePath": "/home/user/GitHub/Viewly/platform-contracts/contracts/dappsys/multivault.sol",
  "compiler": {
    "name": "solc",
    "version": "0.4.19+commit.c4cbbb05.Emscripten.clang"
  },
  "schemaVersion": "1.0.1",
  "updatedAt": "2018-02-10T20:01:21.841Z"
}