{
  "contractName": "DSRoles",
  "abi": [
    {
      "constant": false,
      "inputs": [
        {
          "name": "owner_",
          "type": "address"
        }
      ],
      "name": "setOwner",
      "outputs": [],
      "payable": false,
      "stateMutability": "nonpayable",
      "type": "function"
    },
    {
      "constant": false,
      "inputs": [
        {
          "name": "authority_",
          "type": "address"
        }
      ],
      "name": "setAuthority",
      "outputs": [],
      "payable": false,
      "stateMutability": "nonpayable",
      "type": "function"
    },
    {
      "constant": true,
      "inputs": [],
      "name": "owner",
      "outputs": [
        {
          "name": "",
          "type": "address"
        }
      ],
      "payable": false,
      "stateMutability": "view",
      "type": "function"
    },
    {
      "constant": true,
      "inputs": [],
      "name": "authority",
      "outputs": [
        {
          "name": "",
          "type": "address"
        }
      ],
      "payable": false,
      "stateMutability": "view",
      "type": "function"
    },
    {
      "anonymous": false,
      "inputs": [
        {
          "indexed": true,
          "name": "authority",
          "type": "address"
        }
      ],
      "name": "LogSetAuthority",
      "type": "event"
    },
    {
      "anonymous": false,
      "inputs": [
        {
          "indexed": true,
          "name": "owner",
          "type": "address"
        }
      ],
      "name": "LogSetOwner",
      "type": "event"
    },
    {
      "constant": true,
      "inputs": [
        {
          "name": "who",
          "type": "address"
        }
      ],
      "name": "getUserRoles",
      "outputs": [
        {
          "name": "",
          "type": "bytes32"
        }
      ],
      "payable": false,
      "stateMutability": "view",
      "type": "function"
    },
    {
      "constant": true,
      "inputs": [
        {
          "name": "code",
          "type": "address"
        },
        {
          "name": "sig",
          "type": "bytes4"
        }
      ],
      "name": "getCapabilityRoles",
      "outputs": [
        {
          "name": "",
          "type": "bytes32"
        }
      ],
      "payable": false,
      "stateMutability": "view",
      "type": "function"
    },
    {
      "constant": true,
      "inputs": [
        {
          "name": "who",
          "type": "address"
        }
      ],
      "name": "isUserRoot",
      "outputs": [
        {
          "name": "",
          "type": "bool"
        }
      ],
      "payable": false,
      "stateMutability": "view",
      "type": "function"
    },
    {
      "constant": true,
      "inputs": [
        {
          "name": "code",
          "type": "address"
        },
        {
          "name": "sig",
          "type": "bytes4"
        }
      ],
      "name": "isCapabilityPublic",
      "outputs": [
        {
          "name": "",
          "type": "bool"
        }
      ],
      "payable": false,
      "stateMutability": "view",
      "type": "function"
    },
    {
      "constant": true,
      "inputs": [
        {
          "name": "who",
          "type": "address"
        },
        {
          "name": "role",
          "type": "uint8"
        }
      ],
      "name": "hasUserRole",
      "outputs": [
        {
          "name": "",
          "type": "bool"
        }
      ],
      "payable": false,
      "stateMutability": "view",
      "type": "function"
    },
    {
      "constant": true,
      "inputs": [
        {
          "name": "caller",
          "type": "address"
        },
        {
          "name": "code",
          "type": "address"
        },
        {
          "name": "sig",
          "type": "bytes4"
        }
      ],
      "name": "canCall",
      "outputs": [
        {
          "name": "",
          "type": "bool"
        }
      ],
      "payable": false,
      "stateMutability": "view",
      "type": "function"
    },
    {
      "constant": false,
      "inputs": [
        {
          "name": "who",
          "type": "address"
        },
        {
          "name": "enabled",
          "type": "bool"
        }
      ],
      "name": "setRootUser",
      "outputs": [],
      "payable": false,
      "stateMutability": "nonpayable",
      "type": "function"
    },
    {
      "constant": false,
      "inputs": [
        {
          "name": "who",
          "type": "address"
        },
        {
          "name": "role",
          "type": "uint8"
        },
        {
          "name": "enabled",
          "type": "bool"
        }
      ],
      "name": "setUserRole",
      "outputs": [],
      "payable": false,
      "stateMutability": "nonpayable",
      "type": "function"
    },
    {
      "constant": false,
      "inputs": [
        {
          "name": "code",
          "type": "address"
        },
        {
          "name": "sig",
          "type": "bytes4"
        },
        {
          "name": "enabled",
          "type": "bool"
        }
      ],
      "name": "setPublicCapability",
      "outputs": [],
      "payable": false,
      "stateMutability": "nonpayable",
      "type": "function"
    },
    {
      "constant": false,
      "inputs": [
        {
          "name": "role",
          "type": "uint8"
        },
        {
          "name": "code",
          "type": "address"
        },
        {
          "name": "sig",
          "type": "bytes4"
        },
        {
          "name": "enabled",
          "type": "bool"
        }
      ],
      "name": "setRoleCapability",
      "outputs": [],
      "payable": false,
      "stateMutability": "nonpayable",
      "type": "function"
    }
  ],
  "bytecode": "0x608060405233600160006101000a81548173ffffffffffffffffffffffffffffffffffffffff021916908373ffffffffffffffffffffffffffffffffffffffff1602179055503373ffffffffffffffffffffffffffffffffffffffff167fce241d7ca1f669fee44b6fc00b8eba2df3bb514eed0f6f668f8f89096e81ed9460405160405180910390a26112b2806100976000396000f3006080604052600436106100d0576000357c0100000000000000000000000000000000000000000000000000000000900463ffffffff16806306a36aee146100d557806313af40351461013457806327538e90146101775780632f47571f146101ff57806367aff484146102835780637a9e5e4b146102df5780637d40583d146103225780638da5cb5b146103a7578063a078f737146103fe578063b700961314610466578063bf7e214f1461050a578063c6b0263e14610561578063d381ba7c146105d9578063fbf8077314610628575b600080fd5b3480156100e157600080fd5b50610116600480360381019080803573ffffffffffffffffffffffffffffffffffffffff169060200190929190505050610683565b60405180826000191660001916815260200191505060405180910390f35b34801561014057600080fd5b50610175600480360381019080803573ffffffffffffffffffffffffffffffffffffffff1690602001909291905050506106cc565b005b34801561018357600080fd5b506101e1600480360381019080803573ffffffffffffffffffffffffffffffffffffffff16906020019092919080357bffffffffffffffffffffffffffffffffffffffffffffffffffffffff191690602001909291905050506107ae565b60405180826000191660001916815260200191505060405180910390f35b34801561020b57600080fd5b50610269600480360381019080803573ffffffffffffffffffffffffffffffffffffffff16906020019092919080357bffffffffffffffffffffffffffffffffffffffffffffffffffffffff19169060200190929190505050610847565b604051808215151515815260200191505060405180910390f35b34801561028f57600080fd5b506102dd600480360381019080803573ffffffffffffffffffffffffffffffffffffffff169060200190929190803560ff1690602001909291908035151590602001909291905050506108ed565b005b3480156102eb57600080fd5b50610320600480360381019080803573ffffffffffffffffffffffffffffffffffffffff169060200190929190505050610a26565b005b34801561032e57600080fd5b506103a5600480360381019080803560ff169060200190929190803573ffffffffffffffffffffffffffffffffffffffff16906020019092919080357bffffffffffffffffffffffffffffffffffffffffffffffffffffffff19169060200190929190803515159060200190929190505050610b06565b005b3480156103b357600080fd5b506103bc610d2d565b604051808273ffffffffffffffffffffffffffffffffffffffff1673ffffffffffffffffffffffffffffffffffffffff16815260200191505060405180910390f35b34801561040a57600080fd5b5061044c600480360381019080803573ffffffffffffffffffffffffffffffffffffffff169060200190929190803560ff169060200190929190505050610d53565b604051808215151515815260200191505060405180910390f35b34801561047257600080fd5b506104f0600480360381019080803573ffffffffffffffffffffffffffffffffffffffff169060200190929190803573ffffffffffffffffffffffffffffffffffffffff16906020019092919080357bffffffffffffffffffffffffffffffffffffffffffffffffffffffff19169060200190929190505050610d8b565b604051808215151515815260200191505060405180910390f35b34801561051657600080fd5b5061051f610ded565b604051808273ffffffffffffffffffffffffffffffffffffffff1673ffffffffffffffffffffffffffffffffffffffff16815260200191505060405180910390f35b34801561056d57600080fd5b506105d7600480360381019080803573ffffffffffffffffffffffffffffffffffffffff16906020019092919080357bffffffffffffffffffffffffffffffffffffffffffffffffffffffff19169060200190929190803515159060200190929190505050610e12565b005b3480156105e557600080fd5b50610626600480360381019080803573ffffffffffffffffffffffffffffffffffffffff169060200190929190803515159060200190929190505050610ef6565b005b34801561063457600080fd5b50610669600480360381019080803573ffffffffffffffffffffffffffffffffffffffff169060200190929190505050610f8a565b604051808215151515815260200191505060405180910390f35b6000600360008373ffffffffffffffffffffffffffffffffffffffff1673ffffffffffffffffffffffffffffffffffffffff168152602001908152602001600020549050919050565b6106fa336000357fffffffff0000000000000000000000000000000000000000000000000000000016610fe0565b151561070557600080fd5b80600160006101000a81548173ffffffffffffffffffffffffffffffffffffffff021916908373ffffffffffffffffffffffffffffffffffffffff160217905550600160009054906101000a900473ffffffffffffffffffffffffffffffffffffffff1673ffffffffffffffffffffffffffffffffffffffff167fce241d7ca1f669fee44b6fc00b8eba2df3bb514eed0f6f668f8f89096e81ed9460405160405180910390a250565b6000600460008473ffffffffffffffffffffffffffffffffffffffff1673ffffffffffffffffffffffffffffffffffffffff1681526020019081526020016000206000837bffffffffffffffffffffffffffffffffffffffffffffffffffffffff19167bffffffffffffffffffffffffffffffffffffffffffffffffffffffff1916815260200190815260200160002054905092915050565b6000600560008473ffffffffffffffffffffffffffffffffffffffff1673ffffffffffffffffffffffffffffffffffffffff1681526020019081526020016000206000837bffffffffffffffffffffffffffffffffffffffffffffffffffffffff19167bffffffffffffffffffffffffffffffffffffffffffffffffffffffff1916815260200190815260200160002060009054906101000a900460ff16905092915050565b60008061091e336000357fffffffff0000000000000000000000000000000000000000000000000000000016610fe0565b151561092957600080fd5b600360008673ffffffffffffffffffffffffffffffffffffffff1673ffffffffffffffffffffffffffffffffffffffff1681526020019081526020016000205491508360ff1660020a600102905082156109cc57808217600360008773ffffffffffffffffffffffffffffffffffffffff1673ffffffffffffffffffffffffffffffffffffffff1681526020019081526020016000208160001916905550610a1f565b6109d581611257565b8216600360008773ffffffffffffffffffffffffffffffffffffffff1673ffffffffffffffffffffffffffffffffffffffff16815260200190815260200160002081600019169055505b5050505050565b610a54336000357fffffffff0000000000000000000000000000000000000000000000000000000016610fe0565b1515610a5f57600080fd5b806000806101000a81548173ffffffffffffffffffffffffffffffffffffffff021916908373ffffffffffffffffffffffffffffffffffffffff1602179055506000809054906101000a900473ffffffffffffffffffffffffffffffffffffffff1673ffffffffffffffffffffffffffffffffffffffff167f1abebea81bfa2637f28358c371278fb15ede7ea8dd28d2e03b112ff6d936ada460405160405180910390a250565b600080610b37336000357fffffffff0000000000000000000000000000000000000000000000000000000016610fe0565b1515610b4257600080fd5b600460008673ffffffffffffffffffffffffffffffffffffffff1673ffffffffffffffffffffffffffffffffffffffff1681526020019081526020016000206000857bffffffffffffffffffffffffffffffffffffffffffffffffffffffff19167bffffffffffffffffffffffffffffffffffffffffffffffffffffffff191681526020019081526020016000205491508560ff1660020a60010290508215610c8357808217600460008773ffffffffffffffffffffffffffffffffffffffff1673ffffffffffffffffffffffffffffffffffffffff1681526020019081526020016000206000867bffffffffffffffffffffffffffffffffffffffffffffffffffffffff19167bffffffffffffffffffffffffffffffffffffffffffffffffffffffff191681526020019081526020016000208160001916905550610d25565b610c8c81611257565b8216600460008773ffffffffffffffffffffffffffffffffffffffff1673ffffffffffffffffffffffffffffffffffffffff1681526020019081526020016000206000867bffffffffffffffffffffffffffffffffffffffffffffffffffffffff19167bffffffffffffffffffffffffffffffffffffffffffffffffffffffff1916815260200190815260200160002081600019169055505b505050505050565b600160009054906101000a900473ffffffffffffffffffffffffffffffffffffffff1681565b6000806000610d6185610683565b91508360ff1660020a60010290508082166000191660006001026000191614159250505092915050565b6000806000610d9986610f8a565b80610daa5750610da98585610847565b5b15610db85760019250610de4565b610dc186610683565b9150610dcd85856107ae565b905080821660001916600060010260001916141592505b50509392505050565b6000809054906101000a900473ffffffffffffffffffffffffffffffffffffffff1681565b610e40336000357fffffffff0000000000000000000000000000000000000000000000000000000016610fe0565b1515610e4b57600080fd5b80600560008573ffffffffffffffffffffffffffffffffffffffff1673ffffffffffffffffffffffffffffffffffffffff1681526020019081526020016000206000847bffffffffffffffffffffffffffffffffffffffffffffffffffffffff19167bffffffffffffffffffffffffffffffffffffffffffffffffffffffff1916815260200190815260200160002060006101000a81548160ff021916908315150217905550505050565b610f24336000357fffffffff0000000000000000000000000000000000000000000000000000000016610fe0565b1515610f2f57600080fd5b80600260008473ffffffffffffffffffffffffffffffffffffffff1673ffffffffffffffffffffffffffffffffffffffff16815260200190815260200160002060006101000a81548160ff0219169083151502179055505050565b6000600260008373ffffffffffffffffffffffffffffffffffffffff1673ffffffffffffffffffffffffffffffffffffffff16815260200190815260200160002060009054906101000a900460ff169050919050565b60003073ffffffffffffffffffffffffffffffffffffffff168373ffffffffffffffffffffffffffffffffffffffff16141561101f5760019050611251565b600160009054906101000a900473ffffffffffffffffffffffffffffffffffffffff1673ffffffffffffffffffffffffffffffffffffffff168373ffffffffffffffffffffffffffffffffffffffff16141561107e5760019050611251565b600073ffffffffffffffffffffffffffffffffffffffff166000809054906101000a900473ffffffffffffffffffffffffffffffffffffffff1673ffffffffffffffffffffffffffffffffffffffff1614156110dd5760009050611251565b6000809054906101000a900473ffffffffffffffffffffffffffffffffffffffff1673ffffffffffffffffffffffffffffffffffffffff1663b70096138430856040518463ffffffff167c0100000000000000000000000000000000000000000000000000000000028152600401808473ffffffffffffffffffffffffffffffffffffffff1673ffffffffffffffffffffffffffffffffffffffff1681526020018373ffffffffffffffffffffffffffffffffffffffff1673ffffffffffffffffffffffffffffffffffffffff168152602001827bffffffffffffffffffffffffffffffffffffffffffffffffffffffff19167bffffffffffffffffffffffffffffffffffffffffffffffffffffffff191681526020019350505050602060405180830381600087803b15801561121357600080fd5b505af1158015611227573d6000803e3d6000fd5b505050506040513d602081101561123d57600080fd5b810190808051906020019092919050505090505b92915050565b60007fffffffffffffffffffffffffffffffffffffffffffffffffffffffffffffffff600102821890509190505600a165627a7a72305820aa7983cb1900f9f01bdd49592cfab1f7c08eada6a02010f23e7ab12a3547b3e30029",
  "source": "// roles.sol - roled based authentication\n\n// Copyright (C) 2017  DappHub, LLC\n\n// This program is free software: you can redistribute it and/or modify\n// it under the terms of the GNU General Public License as published by\n// the Free Software Foundation, either version 3 of the License, or\n// (at your option) any later version.\n\n// This program is distributed in the hope that it will be useful,\n// but WITHOUT ANY WARRANTY; without even the implied warranty of\n// MERCHANTABILITY or FITNESS FOR A PARTICULAR PURPOSE.  See the\n// GNU General Public License for more details.\n\n// You should have received a copy of the GNU General Public License\n// along with this program.  If not, see <http://www.gnu.org/licenses/>.\n\npragma solidity ^0.4.13;\n\nimport \"./auth.sol\";\n\ncontract DSRoles is DSAuth, DSAuthority\n{\n    mapping(address=>bool) _root_users;\n    mapping(address=>bytes32) _user_roles;\n    mapping(address=>mapping(bytes4=>bytes32)) _capability_roles;\n    mapping(address=>mapping(bytes4=>bool)) _public_capabilities;\n\n    function getUserRoles(address who)\n        public\n        view\n        returns (bytes32)\n    {\n        return _user_roles[who];\n    }\n\n    function getCapabilityRoles(address code, bytes4 sig)\n        public\n        view\n        returns (bytes32)\n    {\n        return _capability_roles[code][sig];\n    }\n\n    function isUserRoot(address who)\n        public\n        view\n        returns (bool)\n    {\n        return _root_users[who];\n    }\n\n    function isCapabilityPublic(address code, bytes4 sig)\n        public\n        view\n        returns (bool)\n    {\n        return _public_capabilities[code][sig];\n    }\n\n    function hasUserRole(address who, uint8 role)\n        public\n        view\n        returns (bool)\n    {\n        bytes32 roles = getUserRoles(who);\n        bytes32 shifted = bytes32(uint256(uint256(2) ** uint256(role)));\n        return bytes32(0) != roles & shifted;\n    }\n\n    function canCall(address caller, address code, bytes4 sig)\n        public\n        view\n        returns (bool)\n    {\n        if( isUserRoot(caller) || isCapabilityPublic(code, sig) ) {\n            return true;\n        } else {\n            bytes32 has_roles = getUserRoles(caller);\n            bytes32 needs_one_of = getCapabilityRoles(code, sig);\n            return bytes32(0) != has_roles & needs_one_of;\n        }\n    }\n\n    function BITNOT(bytes32 input) internal pure returns (bytes32 output) {\n        return (input ^ bytes32(uint(-1)));\n    }\n\n    function setRootUser(address who, bool enabled)\n        public\n        auth\n    {\n        _root_users[who] = enabled;\n    }\n\n    function setUserRole(address who, uint8 role, bool enabled)\n        public\n        auth\n    {\n        bytes32 last_roles = _user_roles[who];\n        bytes32 shifted = bytes32(uint256(uint256(2) ** uint256(role)));\n        if( enabled ) {\n            _user_roles[who] = last_roles | shifted;\n        } else {\n            _user_roles[who] = last_roles & BITNOT(shifted);\n        }\n    }\n\n    function setPublicCapability(address code, bytes4 sig, bool enabled)\n        public\n        auth\n    {\n        _public_capabilities[code][sig] = enabled;\n    }\n\n    function setRoleCapability(uint8 role, address code, bytes4 sig, bool enabled)\n        public\n        auth\n    {\n        bytes32 last_roles = _capability_roles[code][sig];\n        bytes32 shifted = bytes32(uint256(uint256(2) ** uint256(role)));\n        if( enabled ) {\n            _capability_roles[code][sig] = last_roles | shifted;\n        } else {\n            _capability_roles[code][sig] = last_roles & BITNOT(shifted);\n        }\n\n    }\n\n}\n",
  "sourcePath": "/home/user/GitHub/Viewly/platform-contracts/contracts/dappsys/roles.sol",
  "compiler": {
    "name": "solc",
    "version": "0.4.24+commit.e67f0147.Emscripten.clang"
  },
  "schemaVersion": "2.0.1",
  "updatedAt": "2018-06-24T20:38:07.217Z"
}