{
  "contractName": "DSVault",
  "abi": [
    {
      "constant": false,
      "inputs": [
        {
          "name": "owner_",
          "type": "address"
        }
      ],
      "name": "setOwner",
      "outputs": [],
      "payable": false,
      "stateMutability": "nonpayable",
      "type": "function"
    },
    {
      "constant": false,
      "inputs": [
        {
          "name": "authority_",
          "type": "address"
        }
      ],
      "name": "setAuthority",
      "outputs": [],
      "payable": false,
      "stateMutability": "nonpayable",
      "type": "function"
    },
    {
      "constant": true,
      "inputs": [],
      "name": "owner",
      "outputs": [
        {
          "name": "",
          "type": "address"
        }
      ],
      "payable": false,
      "stateMutability": "view",
      "type": "function"
    },
    {
      "constant": true,
      "inputs": [],
      "name": "authority",
      "outputs": [
        {
          "name": "",
          "type": "address"
        }
      ],
      "payable": false,
      "stateMutability": "view",
      "type": "function"
    },
    {
      "constant": true,
      "inputs": [],
      "name": "token",
      "outputs": [
        {
          "name": "",
          "type": "address"
        }
      ],
      "payable": false,
      "stateMutability": "view",
      "type": "function"
    },
    {
      "anonymous": false,
      "inputs": [
        {
          "indexed": true,
          "name": "authority",
          "type": "address"
        }
      ],
      "name": "LogSetAuthority",
      "type": "event"
    },
    {
      "anonymous": false,
      "inputs": [
        {
          "indexed": true,
          "name": "owner",
          "type": "address"
        }
      ],
      "name": "LogSetOwner",
      "type": "event"
    },
    {
      "constant": false,
      "inputs": [
        {
          "name": "token_",
          "type": "address"
        }
      ],
      "name": "swap",
      "outputs": [],
      "payable": false,
      "stateMutability": "nonpayable",
      "type": "function"
    },
    {
      "constant": false,
      "inputs": [
        {
          "name": "dst",
          "type": "address"
        }
      ],
      "name": "push",
      "outputs": [],
      "payable": false,
      "stateMutability": "nonpayable",
      "type": "function"
    },
    {
      "constant": false,
      "inputs": [
        {
          "name": "dst",
          "type": "address"
        },
        {
          "name": "wad",
          "type": "uint256"
        }
      ],
      "name": "push",
      "outputs": [],
      "payable": false,
      "stateMutability": "nonpayable",
      "type": "function"
    },
    {
      "constant": false,
      "inputs": [
        {
          "name": "token",
          "type": "address"
        },
        {
          "name": "dst",
          "type": "address"
        }
      ],
      "name": "push",
      "outputs": [],
      "payable": false,
      "stateMutability": "nonpayable",
      "type": "function"
    },
    {
      "constant": false,
      "inputs": [
        {
          "name": "token",
          "type": "address"
        },
        {
          "name": "dst",
          "type": "address"
        },
        {
          "name": "wad",
          "type": "uint256"
        }
      ],
      "name": "push",
      "outputs": [],
      "payable": false,
      "stateMutability": "nonpayable",
      "type": "function"
    },
    {
      "constant": false,
      "inputs": [
        {
          "name": "token",
          "type": "address"
        },
        {
          "name": "src",
          "type": "address"
        },
        {
          "name": "wad",
          "type": "uint256"
        }
      ],
      "name": "pull",
      "outputs": [],
      "payable": false,
      "stateMutability": "nonpayable",
      "type": "function"
    },
    {
      "constant": false,
      "inputs": [
        {
          "name": "token",
          "type": "address"
        },
        {
          "name": "src",
          "type": "address"
        }
      ],
      "name": "pull",
      "outputs": [],
      "payable": false,
      "stateMutability": "nonpayable",
      "type": "function"
    },
    {
      "constant": false,
      "inputs": [
        {
          "name": "src",
          "type": "address"
        }
      ],
      "name": "pull",
      "outputs": [],
      "payable": false,
      "stateMutability": "nonpayable",
      "type": "function"
    },
    {
      "constant": false,
      "inputs": [
        {
          "name": "src",
          "type": "address"
        },
        {
          "name": "wad",
          "type": "uint256"
        }
      ],
      "name": "pull",
      "outputs": [],
      "payable": false,
      "stateMutability": "nonpayable",
      "type": "function"
    },
    {
      "constant": false,
      "inputs": [
        {
          "name": "token",
          "type": "address"
        },
        {
          "name": "wad",
          "type": "uint256"
        }
      ],
      "name": "mint",
      "outputs": [],
      "payable": false,
      "stateMutability": "nonpayable",
      "type": "function"
    },
    {
      "constant": false,
      "inputs": [
        {
          "name": "wad",
          "type": "uint256"
        }
      ],
      "name": "mint",
      "outputs": [],
      "payable": false,
      "stateMutability": "nonpayable",
      "type": "function"
    },
    {
      "constant": false,
      "inputs": [
        {
          "name": "token",
          "type": "address"
        },
        {
          "name": "guy",
          "type": "address"
        },
        {
          "name": "wad",
          "type": "uint256"
        }
      ],
      "name": "mint",
      "outputs": [],
      "payable": false,
      "stateMutability": "nonpayable",
      "type": "function"
    },
    {
      "constant": false,
      "inputs": [
        {
          "name": "token",
          "type": "address"
        },
        {
          "name": "guy",
          "type": "address"
        },
        {
          "name": "wad",
          "type": "uint256"
        }
      ],
      "name": "burn",
      "outputs": [],
      "payable": false,
      "stateMutability": "nonpayable",
      "type": "function"
    },
    {
      "constant": false,
      "inputs": [
        {
          "name": "wad",
          "type": "uint256"
        }
      ],
      "name": "burn",
      "outputs": [],
      "payable": false,
      "stateMutability": "nonpayable",
      "type": "function"
    },
    {
      "constant": false,
      "inputs": [
        {
          "name": "token",
          "type": "address"
        },
        {
          "name": "wad",
          "type": "uint256"
        }
      ],
      "name": "burn",
      "outputs": [],
      "payable": false,
      "stateMutability": "nonpayable",
      "type": "function"
    },
    {
      "constant": false,
      "inputs": [],
      "name": "burn",
      "outputs": [],
      "payable": false,
      "stateMutability": "nonpayable",
      "type": "function"
    },
    {
      "constant": false,
      "inputs": [
        {
          "name": "token",
          "type": "address"
        }
      ],
      "name": "burn",
      "outputs": [],
      "payable": false,
      "stateMutability": "nonpayable",
      "type": "function"
    }
  ],
  "bytecode": "0x606060405233600160006101000a81548173ffffffffffffffffffffffffffffffffffffffff021916908373ffffffffffffffffffffffffffffffffffffffff1602179055503373ffffffffffffffffffffffffffffffffffffffff167fce241d7ca1f669fee44b6fc00b8eba2df3bb514eed0f6f668f8f89096e81ed9460405160405180910390a261166a806100976000396000f300606060405260043610610128576000357c0100000000000000000000000000000000000000000000000000000000900463ffffffff16806303438dd01461012d57806313af40351461016657806326e8eda21461019f57806340c10f191461020057806342966c681461024257806344df8e701461026557806352d112381461027a57806366b3bcb0146102b35780637372c2b51461030b5780637a9e5e4b1461036c57806389afcb44146103a557806389b09de7146103de5780638da5cb5b146104175780639dc29fac1461046c578063a0712d68146104ae578063b716ba67146104d1578063b753a98c14610529578063bf7e214f1461056b578063c6c3bbe6146105c0578063f2d5d56b14610621578063f6b911bc14610663578063fc0c546a146106c4575b600080fd5b341561013857600080fd5b610164600480803573ffffffffffffffffffffffffffffffffffffffff16906020019091905050610719565b005b341561017157600080fd5b61019d600480803573ffffffffffffffffffffffffffffffffffffffff16906020019091905050610796565b005b34156101aa57600080fd5b6101fe600480803573ffffffffffffffffffffffffffffffffffffffff1690602001909190803573ffffffffffffffffffffffffffffffffffffffff16906020019091908035906020019091905050610878565b005b341561020b57600080fd5b610240600480803573ffffffffffffffffffffffffffffffffffffffff16906020019091908035906020019091905050610987565b005b341561024d57600080fd5b6102636004808035906020019091905050610a46565b005b341561027057600080fd5b610278610a75565b005b341561028557600080fd5b6102b1600480803573ffffffffffffffffffffffffffffffffffffffff16906020019091905050610aa2565b005b34156102be57600080fd5b610309600480803573ffffffffffffffffffffffffffffffffffffffff1690602001909190803573ffffffffffffffffffffffffffffffffffffffff16906020019091905050610ad1565b005b341561031657600080fd5b61036a600480803573ffffffffffffffffffffffffffffffffffffffff1690602001909190803573ffffffffffffffffffffffffffffffffffffffff16906020019091908035906020019091905050610b9d565b005b341561037757600080fd5b6103a3600480803573ffffffffffffffffffffffffffffffffffffffff16906020019091905050610ce0565b005b34156103b057600080fd5b6103dc600480803573ffffffffffffffffffffffffffffffffffffffff16906020019091905050610dc0565b005b34156103e957600080fd5b610415600480803573ffffffffffffffffffffffffffffffffffffffff16906020019091905050610f3b565b005b341561042257600080fd5b61042a610f6a565b604051808273ffffffffffffffffffffffffffffffffffffffff1673ffffffffffffffffffffffffffffffffffffffff16815260200191505060405180910390f35b341561047757600080fd5b6104ac600480803573ffffffffffffffffffffffffffffffffffffffff16906020019091908035906020019091905050610f90565b005b34156104b957600080fd5b6104cf600480803590602001909190505061104f565b005b34156104dc57600080fd5b610527600480803573ffffffffffffffffffffffffffffffffffffffff1690602001909190803573ffffffffffffffffffffffffffffffffffffffff1690602001909190505061107e565b005b341561053457600080fd5b610569600480803573ffffffffffffffffffffffffffffffffffffffff1690602001909190803590602001909190505061114a565b005b341561057657600080fd5b61057e61117b565b604051808273ffffffffffffffffffffffffffffffffffffffff1673ffffffffffffffffffffffffffffffffffffffff16815260200191505060405180910390f35b34156105cb57600080fd5b61061f600480803573ffffffffffffffffffffffffffffffffffffffff1690602001909190803573ffffffffffffffffffffffffffffffffffffffff169060200190919080359060200190919050506111a0565b005b341561062c57600080fd5b610661600480803573ffffffffffffffffffffffffffffffffffffffff16906020019091908035906020019091905050611294565b005b341561066e57600080fd5b6106c2600480803573ffffffffffffffffffffffffffffffffffffffff1690602001909190803573ffffffffffffffffffffffffffffffffffffffff169060200190919080359060200190919050506112c5565b005b34156106cf57600080fd5b6106d76113b9565b604051808273ffffffffffffffffffffffffffffffffffffffff1673ffffffffffffffffffffffffffffffffffffffff16815260200191505060405180910390f35b610747336000357fffffffff00000000000000000000000000000000000000000000000000000000166113df565b151561075257600080fd5b80600260006101000a81548173ffffffffffffffffffffffffffffffffffffffff021916908373ffffffffffffffffffffffffffffffffffffffff16021790555050565b6107c4336000357fffffffff00000000000000000000000000000000000000000000000000000000166113df565b15156107cf57600080fd5b80600160006101000a81548173ffffffffffffffffffffffffffffffffffffffff021916908373ffffffffffffffffffffffffffffffffffffffff160217905550600160009054906101000a900473ffffffffffffffffffffffffffffffffffffffff1673ffffffffffffffffffffffffffffffffffffffff167fce241d7ca1f669fee44b6fc00b8eba2df3bb514eed0f6f668f8f89096e81ed9460405160405180910390a250565b6108a6336000357fffffffff00000000000000000000000000000000000000000000000000000000166113df565b15156108b157600080fd5b8273ffffffffffffffffffffffffffffffffffffffff1663a9059cbb83836000604051602001526040518363ffffffff167c0100000000000000000000000000000000000000000000000000000000028152600401808373ffffffffffffffffffffffffffffffffffffffff1673ffffffffffffffffffffffffffffffffffffffff16815260200182815260200192505050602060405180830381600087803b151561095c57600080fd5b6102c65a03f1151561096d57600080fd5b50505060405180519050151561098257600080fd5b505050565b6109b5336000357fffffffff00000000000000000000000000000000000000000000000000000000166113df565b15156109c057600080fd5b8173ffffffffffffffffffffffffffffffffffffffff1663a0712d68826040518263ffffffff167c010000000000000000000000000000000000000000000000000000000002815260040180828152602001915050600060405180830381600087803b1515610a2e57600080fd5b6102c65a03f11515610a3f57600080fd5b5050505050565b610a72600260009054906101000a900473ffffffffffffffffffffffffffffffffffffffff1682610f90565b50565b610aa0600260009054906101000a900473ffffffffffffffffffffffffffffffffffffffff16610dc0565b565b610ace600260009054906101000a900473ffffffffffffffffffffffffffffffffffffffff1682610ad1565b50565b610b9982828473ffffffffffffffffffffffffffffffffffffffff166370a08231856000604051602001526040518263ffffffff167c0100000000000000000000000000000000000000000000000000000000028152600401808273ffffffffffffffffffffffffffffffffffffffff1673ffffffffffffffffffffffffffffffffffffffff168152602001915050602060405180830381600087803b1515610b7957600080fd5b6102c65a03f11515610b8a57600080fd5b50505060405180519050610b9d565b5050565b610bcb336000357fffffffff00000000000000000000000000000000000000000000000000000000166113df565b1515610bd657600080fd5b8273ffffffffffffffffffffffffffffffffffffffff166323b872dd8330846000604051602001526040518463ffffffff167c0100000000000000000000000000000000000000000000000000000000028152600401808473ffffffffffffffffffffffffffffffffffffffff1673ffffffffffffffffffffffffffffffffffffffff1681526020018373ffffffffffffffffffffffffffffffffffffffff1673ffffffffffffffffffffffffffffffffffffffff1681526020018281526020019350505050602060405180830381600087803b1515610cb557600080fd5b6102c65a03f11515610cc657600080fd5b505050604051805190501515610cdb57600080fd5b505050565b610d0e336000357fffffffff00000000000000000000000000000000000000000000000000000000166113df565b1515610d1957600080fd5b806000806101000a81548173ffffffffffffffffffffffffffffffffffffffff021916908373ffffffffffffffffffffffffffffffffffffffff1602179055506000809054906101000a900473ffffffffffffffffffffffffffffffffffffffff1673ffffffffffffffffffffffffffffffffffffffff167f1abebea81bfa2637f28358c371278fb15ede7ea8dd28d2e03b112ff6d936ada460405160405180910390a250565b610dee336000357fffffffff00000000000000000000000000000000000000000000000000000000166113df565b1515610df957600080fd5b8073ffffffffffffffffffffffffffffffffffffffff166342966c688273ffffffffffffffffffffffffffffffffffffffff166370a08231306000604051602001526040518263ffffffff167c0100000000000000000000000000000000000000000000000000000000028152600401808273ffffffffffffffffffffffffffffffffffffffff1673ffffffffffffffffffffffffffffffffffffffff168152602001915050602060405180830381600087803b1515610eb857600080fd5b6102c65a03f11515610ec957600080fd5b505050604051805190506040518263ffffffff167c010000000000000000000000000000000000000000000000000000000002815260040180828152602001915050600060405180830381600087803b1515610f2457600080fd5b6102c65a03f11515610f3557600080fd5b50505050565b610f67600260009054906101000a900473ffffffffffffffffffffffffffffffffffffffff168261107e565b50565b600160009054906101000a900473ffffffffffffffffffffffffffffffffffffffff1681565b610fbe336000357fffffffff00000000000000000000000000000000000000000000000000000000166113df565b1515610fc957600080fd5b8173ffffffffffffffffffffffffffffffffffffffff166342966c68826040518263ffffffff167c010000000000000000000000000000000000000000000000000000000002815260040180828152602001915050600060405180830381600087803b151561103757600080fd5b6102c65a03f1151561104857600080fd5b5050505050565b61107b600260009054906101000a900473ffffffffffffffffffffffffffffffffffffffff1682610987565b50565b61114682828473ffffffffffffffffffffffffffffffffffffffff166370a08231306000604051602001526040518263ffffffff167c0100000000000000000000000000000000000000000000000000000000028152600401808273ffffffffffffffffffffffffffffffffffffffff1673ffffffffffffffffffffffffffffffffffffffff168152602001915050602060405180830381600087803b151561112657600080fd5b6102c65a03f1151561113757600080fd5b50505060405180519050610878565b5050565b611177600260009054906101000a900473ffffffffffffffffffffffffffffffffffffffff168383610878565b5050565b6000809054906101000a900473ffffffffffffffffffffffffffffffffffffffff1681565b6111ce336000357fffffffff00000000000000000000000000000000000000000000000000000000166113df565b15156111d957600080fd5b8273ffffffffffffffffffffffffffffffffffffffff166340c10f1983836040518363ffffffff167c0100000000000000000000000000000000000000000000000000000000028152600401808373ffffffffffffffffffffffffffffffffffffffff1673ffffffffffffffffffffffffffffffffffffffff16815260200182815260200192505050600060405180830381600087803b151561127b57600080fd5b6102c65a03f1151561128c57600080fd5b505050505050565b6112c1600260009054906101000a900473ffffffffffffffffffffffffffffffffffffffff168383610b9d565b5050565b6112f3336000357fffffffff00000000000000000000000000000000000000000000000000000000166113df565b15156112fe57600080fd5b8273ffffffffffffffffffffffffffffffffffffffff16639dc29fac83836040518363ffffffff167c0100000000000000000000000000000000000000000000000000000000028152600401808373ffffffffffffffffffffffffffffffffffffffff1673ffffffffffffffffffffffffffffffffffffffff16815260200182815260200192505050600060405180830381600087803b15156113a057600080fd5b6102c65a03f115156113b157600080fd5b505050505050565b600260009054906101000a900473ffffffffffffffffffffffffffffffffffffffff1681565b60003073ffffffffffffffffffffffffffffffffffffffff168373ffffffffffffffffffffffffffffffffffffffff16141561141e5760019050611638565b600160009054906101000a900473ffffffffffffffffffffffffffffffffffffffff1673ffffffffffffffffffffffffffffffffffffffff168373ffffffffffffffffffffffffffffffffffffffff16141561147d5760019050611638565b600073ffffffffffffffffffffffffffffffffffffffff166000809054906101000a900473ffffffffffffffffffffffffffffffffffffffff1673ffffffffffffffffffffffffffffffffffffffff1614156114dc5760009050611638565b6000809054906101000a900473ffffffffffffffffffffffffffffffffffffffff1673ffffffffffffffffffffffffffffffffffffffff1663b70096138430856000604051602001526040518463ffffffff167c0100000000000000000000000000000000000000000000000000000000028152600401808473ffffffffffffffffffffffffffffffffffffffff1673ffffffffffffffffffffffffffffffffffffffff1681526020018373ffffffffffffffffffffffffffffffffffffffff1673ffffffffffffffffffffffffffffffffffffffff168152602001827bffffffffffffffffffffffffffffffffffffffffffffffffffffffff19167bffffffffffffffffffffffffffffffffffffffffffffffffffffffff191681526020019350505050602060405180830381600087803b151561161a57600080fd5b6102c65a03f1151561162b57600080fd5b5050506040518051905090505b929150505600a165627a7a72305820de61c123c121500ea664369a93bdb1fdf81e40245ce70a913e86e90fa56a2efd0029",
  "source": "// vault.sol -- vault for holding a single kind of ERC20 tokens\n\n// Copyright (C) 2017  DappHub, LLC\n\n// This program is free software: you can redistribute it and/or modify\n// it under the terms of the GNU General Public License as published by\n// the Free Software Foundation, either version 3 of the License, or\n// (at your option) any later version.\n\n// This program is distributed in the hope that it will be useful,\n// but WITHOUT ANY WARRANTY; without even the implied warranty of\n// MERCHANTABILITY or FITNESS FOR A PARTICULAR PURPOSE.  See the\n// GNU General Public License for more details.\n\n// You should have received a copy of the GNU General Public License\n// along with this program.  If not, see <http://www.gnu.org/licenses/>.\n\npragma solidity ^0.4.13;\n\nimport \"./multivault.sol\";\n\ncontract DSVault is DSMultiVault {\n    ERC20  public  token;\n\n    function swap(ERC20 token_) public auth {\n        token = token_;\n    }\n\n    function push(address dst, uint wad) public {\n        push(token, dst, wad);\n    }\n    function pull(address src, uint wad) public {\n        pull(token, src, wad);\n    }\n\n    function push(address dst) public {\n        push(token, dst);\n    }\n    function pull(address src) public {\n        pull(token, src);\n    }\n\n    function mint(uint wad) public {\n        super.mint(DSToken(token), wad);\n    }\n    function burn(uint wad) public {\n        super.burn(DSToken(token), wad);\n    }\n\n    function burn() public {\n        burn(DSToken(token));\n    }\n}\n",
  "sourcePath": "/home/user/GitHub/Viewly/platform-contracts/contracts/dappsys/vault.sol",
  "compiler": {
    "name": "solc",
    "version": "0.4.19+commit.c4cbbb05.Emscripten.clang"
  },
  "schemaVersion": "1.0.1",
  "updatedAt": "2018-02-10T20:01:21.843Z"
}