{
  "contractName": "DSVault",
  "abi": [
    {
      "constant": false,
      "inputs": [
        {
          "name": "owner_",
          "type": "address"
        }
      ],
      "name": "setOwner",
      "outputs": [],
      "payable": false,
      "stateMutability": "nonpayable",
      "type": "function"
    },
    {
      "constant": false,
      "inputs": [
        {
          "name": "authority_",
          "type": "address"
        }
      ],
      "name": "setAuthority",
      "outputs": [],
      "payable": false,
      "stateMutability": "nonpayable",
      "type": "function"
    },
    {
      "constant": true,
      "inputs": [],
      "name": "owner",
      "outputs": [
        {
          "name": "",
          "type": "address"
        }
      ],
      "payable": false,
      "stateMutability": "view",
      "type": "function"
    },
    {
      "constant": true,
      "inputs": [],
      "name": "authority",
      "outputs": [
        {
          "name": "",
          "type": "address"
        }
      ],
      "payable": false,
      "stateMutability": "view",
      "type": "function"
    },
    {
      "constant": true,
      "inputs": [],
      "name": "token",
      "outputs": [
        {
          "name": "",
          "type": "address"
        }
      ],
      "payable": false,
      "stateMutability": "view",
      "type": "function"
    },
    {
      "anonymous": false,
      "inputs": [
        {
          "indexed": true,
          "name": "authority",
          "type": "address"
        }
      ],
      "name": "LogSetAuthority",
      "type": "event"
    },
    {
      "anonymous": false,
      "inputs": [
        {
          "indexed": true,
          "name": "owner",
          "type": "address"
        }
      ],
      "name": "LogSetOwner",
      "type": "event"
    },
    {
      "constant": false,
      "inputs": [
        {
          "name": "token_",
          "type": "address"
        }
      ],
      "name": "swap",
      "outputs": [],
      "payable": false,
      "stateMutability": "nonpayable",
      "type": "function"
    },
    {
      "constant": false,
      "inputs": [
        {
          "name": "dst",
          "type": "address"
        }
      ],
      "name": "push",
      "outputs": [],
      "payable": false,
      "stateMutability": "nonpayable",
      "type": "function"
    },
    {
      "constant": false,
      "inputs": [
        {
          "name": "dst",
          "type": "address"
        },
        {
          "name": "wad",
          "type": "uint256"
        }
      ],
      "name": "push",
      "outputs": [],
      "payable": false,
      "stateMutability": "nonpayable",
      "type": "function"
    },
    {
      "constant": false,
      "inputs": [
        {
          "name": "token",
          "type": "address"
        },
        {
          "name": "dst",
          "type": "address"
        }
      ],
      "name": "push",
      "outputs": [],
      "payable": false,
      "stateMutability": "nonpayable",
      "type": "function"
    },
    {
      "constant": false,
      "inputs": [
        {
          "name": "token",
          "type": "address"
        },
        {
          "name": "dst",
          "type": "address"
        },
        {
          "name": "wad",
          "type": "uint256"
        }
      ],
      "name": "push",
      "outputs": [],
      "payable": false,
      "stateMutability": "nonpayable",
      "type": "function"
    },
    {
      "constant": false,
      "inputs": [
        {
          "name": "token",
          "type": "address"
        },
        {
          "name": "src",
          "type": "address"
        },
        {
          "name": "wad",
          "type": "uint256"
        }
      ],
      "name": "pull",
      "outputs": [],
      "payable": false,
      "stateMutability": "nonpayable",
      "type": "function"
    },
    {
      "constant": false,
      "inputs": [
        {
          "name": "token",
          "type": "address"
        },
        {
          "name": "src",
          "type": "address"
        }
      ],
      "name": "pull",
      "outputs": [],
      "payable": false,
      "stateMutability": "nonpayable",
      "type": "function"
    },
    {
      "constant": false,
      "inputs": [
        {
          "name": "src",
          "type": "address"
        }
      ],
      "name": "pull",
      "outputs": [],
      "payable": false,
      "stateMutability": "nonpayable",
      "type": "function"
    },
    {
      "constant": false,
      "inputs": [
        {
          "name": "src",
          "type": "address"
        },
        {
          "name": "wad",
          "type": "uint256"
        }
      ],
      "name": "pull",
      "outputs": [],
      "payable": false,
      "stateMutability": "nonpayable",
      "type": "function"
    },
    {
      "constant": false,
      "inputs": [
        {
          "name": "token",
          "type": "address"
        },
        {
          "name": "wad",
          "type": "uint256"
        }
      ],
      "name": "mint",
      "outputs": [],
      "payable": false,
      "stateMutability": "nonpayable",
      "type": "function"
    },
    {
      "constant": false,
      "inputs": [
        {
          "name": "wad",
          "type": "uint256"
        }
      ],
      "name": "mint",
      "outputs": [],
      "payable": false,
      "stateMutability": "nonpayable",
      "type": "function"
    },
    {
      "constant": false,
      "inputs": [
        {
          "name": "token",
          "type": "address"
        },
        {
          "name": "guy",
          "type": "address"
        },
        {
          "name": "wad",
          "type": "uint256"
        }
      ],
      "name": "mint",
      "outputs": [],
      "payable": false,
      "stateMutability": "nonpayable",
      "type": "function"
    },
    {
      "constant": false,
      "inputs": [
        {
          "name": "token",
          "type": "address"
        },
        {
          "name": "guy",
          "type": "address"
        },
        {
          "name": "wad",
          "type": "uint256"
        }
      ],
      "name": "burn",
      "outputs": [],
      "payable": false,
      "stateMutability": "nonpayable",
      "type": "function"
    },
    {
      "constant": false,
      "inputs": [
        {
          "name": "wad",
          "type": "uint256"
        }
      ],
      "name": "burn",
      "outputs": [],
      "payable": false,
      "stateMutability": "nonpayable",
      "type": "function"
    },
    {
      "constant": false,
      "inputs": [
        {
          "name": "token",
          "type": "address"
        },
        {
          "name": "wad",
          "type": "uint256"
        }
      ],
      "name": "burn",
      "outputs": [],
      "payable": false,
      "stateMutability": "nonpayable",
      "type": "function"
    },
    {
      "constant": false,
      "inputs": [],
      "name": "burn",
      "outputs": [],
      "payable": false,
      "stateMutability": "nonpayable",
      "type": "function"
    },
    {
      "constant": false,
      "inputs": [
        {
          "name": "token",
          "type": "address"
        }
      ],
      "name": "burn",
      "outputs": [],
      "payable": false,
      "stateMutability": "nonpayable",
      "type": "function"
    }
  ],
  "bytecode": "0x608060405233600160006101000a81548173ffffffffffffffffffffffffffffffffffffffff021916908373ffffffffffffffffffffffffffffffffffffffff1602179055503373ffffffffffffffffffffffffffffffffffffffff167fce241d7ca1f669fee44b6fc00b8eba2df3bb514eed0f6f668f8f89096e81ed9460405160405180910390a26117dd806100976000396000f300608060405260043610610128576000357c0100000000000000000000000000000000000000000000000000000000900463ffffffff16806303438dd01461012d57806313af40351461017057806326e8eda2146101b357806340c10f191461022057806342966c681461026d57806344df8e701461029a57806352d11238146102b157806366b3bcb0146102f45780637372c2b5146103575780637a9e5e4b146103c457806389afcb441461040757806389b09de71461044a5780638da5cb5b1461048d5780639dc29fac146104e4578063a0712d6814610531578063b716ba671461055e578063b753a98c146105c1578063bf7e214f1461060e578063c6c3bbe614610665578063f2d5d56b146106d2578063f6b911bc1461071f578063fc0c546a1461078c575b600080fd5b34801561013957600080fd5b5061016e600480360381019080803573ffffffffffffffffffffffffffffffffffffffff1690602001909291905050506107e3565b005b34801561017c57600080fd5b506101b1600480360381019080803573ffffffffffffffffffffffffffffffffffffffff169060200190929190505050610860565b005b3480156101bf57600080fd5b5061021e600480360381019080803573ffffffffffffffffffffffffffffffffffffffff169060200190929190803573ffffffffffffffffffffffffffffffffffffffff16906020019092919080359060200190929190505050610942565b005b34801561022c57600080fd5b5061026b600480360381019080803573ffffffffffffffffffffffffffffffffffffffff16906020019092919080359060200190929190505050610a69565b005b34801561027957600080fd5b5061029860048036038101908080359060200190929190505050610b2d565b005b3480156102a657600080fd5b506102af610b5c565b005b3480156102bd57600080fd5b506102f2600480360381019080803573ffffffffffffffffffffffffffffffffffffffff169060200190929190505050610b89565b005b34801561030057600080fd5b50610355600480360381019080803573ffffffffffffffffffffffffffffffffffffffff169060200190929190803573ffffffffffffffffffffffffffffffffffffffff169060200190929190505050610bb8565b005b34801561036357600080fd5b506103c2600480360381019080803573ffffffffffffffffffffffffffffffffffffffff169060200190929190803573ffffffffffffffffffffffffffffffffffffffff16906020019092919080359060200190929190505050610c9c565b005b3480156103d057600080fd5b50610405600480360381019080803573ffffffffffffffffffffffffffffffffffffffff169060200190929190505050610df7565b005b34801561041357600080fd5b50610448600480360381019080803573ffffffffffffffffffffffffffffffffffffffff169060200190929190505050610ed7565b005b34801561045657600080fd5b5061048b600480360381019080803573ffffffffffffffffffffffffffffffffffffffff16906020019092919050505061106f565b005b34801561049957600080fd5b506104a261109e565b604051808273ffffffffffffffffffffffffffffffffffffffff1673ffffffffffffffffffffffffffffffffffffffff16815260200191505060405180910390f35b3480156104f057600080fd5b5061052f600480360381019080803573ffffffffffffffffffffffffffffffffffffffff169060200190929190803590602001909291905050506110c4565b005b34801561053d57600080fd5b5061055c60048036038101908080359060200190929190505050611188565b005b34801561056a57600080fd5b506105bf600480360381019080803573ffffffffffffffffffffffffffffffffffffffff169060200190929190803573ffffffffffffffffffffffffffffffffffffffff1690602001909291905050506111b7565b005b3480156105cd57600080fd5b5061060c600480360381019080803573ffffffffffffffffffffffffffffffffffffffff1690602001909291908035906020019092919050505061129b565b005b34801561061a57600080fd5b506106236112cc565b604051808273ffffffffffffffffffffffffffffffffffffffff1673ffffffffffffffffffffffffffffffffffffffff16815260200191505060405180910390f35b34801561067157600080fd5b506106d0600480360381019080803573ffffffffffffffffffffffffffffffffffffffff169060200190929190803573ffffffffffffffffffffffffffffffffffffffff169060200190929190803590602001909291905050506112f1565b005b3480156106de57600080fd5b5061071d600480360381019080803573ffffffffffffffffffffffffffffffffffffffff169060200190929190803590602001909291905050506113ea565b005b34801561072b57600080fd5b5061078a600480360381019080803573ffffffffffffffffffffffffffffffffffffffff169060200190929190803573ffffffffffffffffffffffffffffffffffffffff1690602001909291908035906020019092919050505061141b565b005b34801561079857600080fd5b506107a1611514565b604051808273ffffffffffffffffffffffffffffffffffffffff1673ffffffffffffffffffffffffffffffffffffffff16815260200191505060405180910390f35b610811336000357fffffffff000000000000000000000000000000000000000000000000000000001661153a565b151561081c57600080fd5b80600260006101000a81548173ffffffffffffffffffffffffffffffffffffffff021916908373ffffffffffffffffffffffffffffffffffffffff16021790555050565b61088e336000357fffffffff000000000000000000000000000000000000000000000000000000001661153a565b151561089957600080fd5b80600160006101000a81548173ffffffffffffffffffffffffffffffffffffffff021916908373ffffffffffffffffffffffffffffffffffffffff160217905550600160009054906101000a900473ffffffffffffffffffffffffffffffffffffffff1673ffffffffffffffffffffffffffffffffffffffff167fce241d7ca1f669fee44b6fc00b8eba2df3bb514eed0f6f668f8f89096e81ed9460405160405180910390a250565b610970336000357fffffffff000000000000000000000000000000000000000000000000000000001661153a565b151561097b57600080fd5b8273ffffffffffffffffffffffffffffffffffffffff1663a9059cbb83836040518363ffffffff167c0100000000000000000000000000000000000000000000000000000000028152600401808373ffffffffffffffffffffffffffffffffffffffff1673ffffffffffffffffffffffffffffffffffffffff16815260200182815260200192505050602060405180830381600087803b158015610a1e57600080fd5b505af1158015610a32573d6000803e3d6000fd5b505050506040513d6020811015610a4857600080fd5b81019080805190602001909291905050501515610a6457600080fd5b505050565b610a97336000357fffffffff000000000000000000000000000000000000000000000000000000001661153a565b1515610aa257600080fd5b8173ffffffffffffffffffffffffffffffffffffffff1663a0712d68826040518263ffffffff167c010000000000000000000000000000000000000000000000000000000002815260040180828152602001915050600060405180830381600087803b158015610b1157600080fd5b505af1158015610b25573d6000803e3d6000fd5b505050505050565b610b59600260009054906101000a900473ffffffffffffffffffffffffffffffffffffffff16826110c4565b50565b610b87600260009054906101000a900473ffffffffffffffffffffffffffffffffffffffff16610ed7565b565b610bb5600260009054906101000a900473ffffffffffffffffffffffffffffffffffffffff1682610bb8565b50565b610c9882828473ffffffffffffffffffffffffffffffffffffffff166370a08231856040518263ffffffff167c0100000000000000000000000000000000000000000000000000000000028152600401808273ffffffffffffffffffffffffffffffffffffffff1673ffffffffffffffffffffffffffffffffffffffff168152602001915050602060405180830381600087803b158015610c5857600080fd5b505af1158015610c6c573d6000803e3d6000fd5b505050506040513d6020811015610c8257600080fd5b8101908080519060200190929190505050610c9c565b5050565b610cca336000357fffffffff000000000000000000000000000000000000000000000000000000001661153a565b1515610cd557600080fd5b8273ffffffffffffffffffffffffffffffffffffffff166323b872dd8330846040518463ffffffff167c0100000000000000000000000000000000000000000000000000000000028152600401808473ffffffffffffffffffffffffffffffffffffffff1673ffffffffffffffffffffffffffffffffffffffff1681526020018373ffffffffffffffffffffffffffffffffffffffff1673ffffffffffffffffffffffffffffffffffffffff1681526020018281526020019350505050602060405180830381600087803b158015610dac57600080fd5b505af1158015610dc0573d6000803e3d6000fd5b505050506040513d6020811015610dd657600080fd5b81019080805190602001909291905050501515610df257600080fd5b505050565b610e25336000357fffffffff000000000000000000000000000000000000000000000000000000001661153a565b1515610e3057600080fd5b806000806101000a81548173ffffffffffffffffffffffffffffffffffffffff021916908373ffffffffffffffffffffffffffffffffffffffff1602179055506000809054906101000a900473ffffffffffffffffffffffffffffffffffffffff1673ffffffffffffffffffffffffffffffffffffffff167f1abebea81bfa2637f28358c371278fb15ede7ea8dd28d2e03b112ff6d936ada460405160405180910390a250565b610f05336000357fffffffff000000000000000000000000000000000000000000000000000000001661153a565b1515610f1057600080fd5b8073ffffffffffffffffffffffffffffffffffffffff166342966c688273ffffffffffffffffffffffffffffffffffffffff166370a08231306040518263ffffffff167c0100000000000000000000000000000000000000000000000000000000028152600401808273ffffffffffffffffffffffffffffffffffffffff1673ffffffffffffffffffffffffffffffffffffffff168152602001915050602060405180830381600087803b158015610fc757600080fd5b505af1158015610fdb573d6000803e3d6000fd5b505050506040513d6020811015610ff157600080fd5b81019080805190602001909291905050506040518263ffffffff167c010000000000000000000000000000000000000000000000000000000002815260040180828152602001915050600060405180830381600087803b15801561105457600080fd5b505af1158015611068573d6000803e3d6000fd5b5050505050565b61109b600260009054906101000a900473ffffffffffffffffffffffffffffffffffffffff16826111b7565b50565b600160009054906101000a900473ffffffffffffffffffffffffffffffffffffffff1681565b6110f2336000357fffffffff000000000000000000000000000000000000000000000000000000001661153a565b15156110fd57600080fd5b8173ffffffffffffffffffffffffffffffffffffffff166342966c68826040518263ffffffff167c010000000000000000000000000000000000000000000000000000000002815260040180828152602001915050600060405180830381600087803b15801561116c57600080fd5b505af1158015611180573d6000803e3d6000fd5b505050505050565b6111b4600260009054906101000a900473ffffffffffffffffffffffffffffffffffffffff1682610a69565b50565b61129782828473ffffffffffffffffffffffffffffffffffffffff166370a08231306040518263ffffffff167c0100000000000000000000000000000000000000000000000000000000028152600401808273ffffffffffffffffffffffffffffffffffffffff1673ffffffffffffffffffffffffffffffffffffffff168152602001915050602060405180830381600087803b15801561125757600080fd5b505af115801561126b573d6000803e3d6000fd5b505050506040513d602081101561128157600080fd5b8101908080519060200190929190505050610942565b5050565b6112c8600260009054906101000a900473ffffffffffffffffffffffffffffffffffffffff168383610942565b5050565b6000809054906101000a900473ffffffffffffffffffffffffffffffffffffffff1681565b61131f336000357fffffffff000000000000000000000000000000000000000000000000000000001661153a565b151561132a57600080fd5b8273ffffffffffffffffffffffffffffffffffffffff166340c10f1983836040518363ffffffff167c0100000000000000000000000000000000000000000000000000000000028152600401808373ffffffffffffffffffffffffffffffffffffffff1673ffffffffffffffffffffffffffffffffffffffff16815260200182815260200192505050600060405180830381600087803b1580156113cd57600080fd5b505af11580156113e1573d6000803e3d6000fd5b50505050505050565b611417600260009054906101000a900473ffffffffffffffffffffffffffffffffffffffff168383610c9c565b5050565b611449336000357fffffffff000000000000000000000000000000000000000000000000000000001661153a565b151561145457600080fd5b8273ffffffffffffffffffffffffffffffffffffffff16639dc29fac83836040518363ffffffff167c0100000000000000000000000000000000000000000000000000000000028152600401808373ffffffffffffffffffffffffffffffffffffffff1673ffffffffffffffffffffffffffffffffffffffff16815260200182815260200192505050600060405180830381600087803b1580156114f757600080fd5b505af115801561150b573d6000803e3d6000fd5b50505050505050565b600260009054906101000a900473ffffffffffffffffffffffffffffffffffffffff1681565b60003073ffffffffffffffffffffffffffffffffffffffff168373ffffffffffffffffffffffffffffffffffffffff16141561157957600190506117ab565b600160009054906101000a900473ffffffffffffffffffffffffffffffffffffffff1673ffffffffffffffffffffffffffffffffffffffff168373ffffffffffffffffffffffffffffffffffffffff1614156115d857600190506117ab565b600073ffffffffffffffffffffffffffffffffffffffff166000809054906101000a900473ffffffffffffffffffffffffffffffffffffffff1673ffffffffffffffffffffffffffffffffffffffff16141561163757600090506117ab565b6000809054906101000a900473ffffffffffffffffffffffffffffffffffffffff1673ffffffffffffffffffffffffffffffffffffffff1663b70096138430856040518463ffffffff167c0100000000000000000000000000000000000000000000000000000000028152600401808473ffffffffffffffffffffffffffffffffffffffff1673ffffffffffffffffffffffffffffffffffffffff1681526020018373ffffffffffffffffffffffffffffffffffffffff1673ffffffffffffffffffffffffffffffffffffffff168152602001827bffffffffffffffffffffffffffffffffffffffffffffffffffffffff19167bffffffffffffffffffffffffffffffffffffffffffffffffffffffff191681526020019350505050602060405180830381600087803b15801561176d57600080fd5b505af1158015611781573d6000803e3d6000fd5b505050506040513d602081101561179757600080fd5b810190808051906020019092919050505090505b929150505600a165627a7a72305820ab050d4382bb1e93cd628db9c20a3e45c15488e67ac62b3e35656a301e6cd9770029",
  "source": "// vault.sol -- vault for holding a single kind of ERC20 tokens\n\n// Copyright (C) 2017  DappHub, LLC\n\n// This program is free software: you can redistribute it and/or modify\n// it under the terms of the GNU General Public License as published by\n// the Free Software Foundation, either version 3 of the License, or\n// (at your option) any later version.\n\n// This program is distributed in the hope that it will be useful,\n// but WITHOUT ANY WARRANTY; without even the implied warranty of\n// MERCHANTABILITY or FITNESS FOR A PARTICULAR PURPOSE.  See the\n// GNU General Public License for more details.\n\n// You should have received a copy of the GNU General Public License\n// along with this program.  If not, see <http://www.gnu.org/licenses/>.\n\npragma solidity ^0.4.23;\n\nimport \"./multivault.sol\";\n\ncontract DSVault is DSMultiVault {\n    ERC20  public  token;\n\n    function swap(ERC20 token_) public auth {\n        token = token_;\n    }\n\n    function push(address dst, uint wad) public {\n        push(token, dst, wad);\n    }\n    function pull(address src, uint wad) public {\n        pull(token, src, wad);\n    }\n\n    function push(address dst) public {\n        push(token, dst);\n    }\n    function pull(address src) public {\n        pull(token, src);\n    }\n\n    function mint(uint wad) public {\n        super.mint(DSToken(token), wad);\n    }\n    function burn(uint wad) public {\n        super.burn(DSToken(token), wad);\n    }\n\n    function burn() public {\n        burn(DSToken(token));\n    }\n}\n",
  "sourcePath": "/home/user/GitHub/Viewly/platform-contracts/contracts/dappsys/vault.sol",
  "compiler": {
    "name": "solc",
    "version": "0.4.24+commit.e67f0147.Emscripten.clang"
  },
  "schemaVersion": "2.0.1",
  "updatedAt": "2018-06-24T20:38:07.201Z"
}