{
  "contractName": "VideoPublisher",
  "abi": [
    {
      "constant": false,
      "inputs": [
        {
          "name": "owner_",
          "type": "address"
        }
      ],
      "name": "setOwner",
      "outputs": [],
      "payable": false,
      "stateMutability": "nonpayable",
      "type": "function"
    },
    {
      "constant": false,
      "inputs": [
        {
          "name": "authority_",
          "type": "address"
        }
      ],
      "name": "setAuthority",
      "outputs": [],
      "payable": false,
      "stateMutability": "nonpayable",
      "type": "function"
    },
    {
      "constant": true,
      "inputs": [],
      "name": "owner",
      "outputs": [
        {
          "name": "",
          "type": "address"
        }
      ],
      "payable": false,
      "stateMutability": "view",
      "type": "function"
    },
    {
      "constant": true,
      "inputs": [],
      "name": "viewToken",
      "outputs": [
        {
          "name": "",
          "type": "address"
        }
      ],
      "payable": false,
      "stateMutability": "view",
      "type": "function"
    },
    {
      "constant": true,
      "inputs": [],
      "name": "price",
      "outputs": [
        {
          "name": "",
          "type": "uint256"
        }
      ],
      "payable": false,
      "stateMutability": "view",
      "type": "function"
    },
    {
      "constant": true,
      "inputs": [
        {
          "name": "",
          "type": "bytes12"
        }
      ],
      "name": "videos",
      "outputs": [
        {
          "name": "",
          "type": "bool"
        }
      ],
      "payable": false,
      "stateMutability": "view",
      "type": "function"
    },
    {
      "constant": true,
      "inputs": [],
      "name": "authority",
      "outputs": [
        {
          "name": "",
          "type": "address"
        }
      ],
      "payable": false,
      "stateMutability": "view",
      "type": "function"
    },
    {
      "inputs": [
        {
          "name": "viewToken_",
          "type": "address"
        },
        {
          "name": "price_",
          "type": "uint256"
        }
      ],
      "payable": false,
      "stateMutability": "nonpayable",
      "type": "constructor"
    },
    {
      "payable": true,
      "stateMutability": "payable",
      "type": "fallback"
    },
    {
      "anonymous": false,
      "inputs": [
        {
          "indexed": false,
          "name": "videoID",
          "type": "bytes12"
        },
        {
          "indexed": false,
          "name": "price",
          "type": "uint256"
        }
      ],
      "name": "Published",
      "type": "event"
    },
    {
      "anonymous": false,
      "inputs": [
        {
          "indexed": true,
          "name": "authority",
          "type": "address"
        }
      ],
      "name": "LogSetAuthority",
      "type": "event"
    },
    {
      "anonymous": false,
      "inputs": [
        {
          "indexed": true,
          "name": "owner",
          "type": "address"
        }
      ],
      "name": "LogSetOwner",
      "type": "event"
    },
    {
      "constant": false,
      "inputs": [
        {
          "name": "videoID",
          "type": "bytes12"
        }
      ],
      "name": "publish",
      "outputs": [],
      "payable": false,
      "stateMutability": "nonpayable",
      "type": "function"
    },
    {
      "constant": false,
      "inputs": [
        {
          "name": "newPrice",
          "type": "uint256"
        }
      ],
      "name": "setPrice",
      "outputs": [],
      "payable": false,
      "stateMutability": "nonpayable",
      "type": "function"
    },
    {
      "constant": false,
      "inputs": [
        {
          "name": "addr",
          "type": "address"
        }
      ],
      "name": "withdraw",
      "outputs": [],
      "payable": false,
      "stateMutability": "nonpayable",
      "type": "function"
    },
    {
      "constant": false,
      "inputs": [
        {
          "name": "addr",
          "type": "address"
        }
      ],
      "name": "destruct",
      "outputs": [],
      "payable": false,
      "stateMutability": "nonpayable",
      "type": "function"
    }
  ],
  "bytecode": "0x6060604052341561000f57600080fd5b604051604080610f3b8339810160405280805190602001909190805190602001909190505033600160006101000a81548173ffffffffffffffffffffffffffffffffffffffff021916908373ffffffffffffffffffffffffffffffffffffffff1602179055503373ffffffffffffffffffffffffffffffffffffffff167fce241d7ca1f669fee44b6fc00b8eba2df3bb514eed0f6f668f8f89096e81ed9460405160405180910390a281600260006101000a81548173ffffffffffffffffffffffffffffffffffffffff021916908373ffffffffffffffffffffffffffffffffffffffff160217905550806003819055505050610e2a806101116000396000f3006060604052600436106100af576000357c0100000000000000000000000000000000000000000000000000000000900463ffffffff16806302400845146100b457806313af4035146100ee5780631beb26151461012757806351cff8d9146101605780637a9e5e4b146101995780638da5cb5b146101d257806391b7f5ed146102275780639ab4833e1461024a578063a035b1fe1461029f578063a569b5c9146102c8578063bf7e214f1461031a575b600080fd5b34156100bf57600080fd5b6100ec600480803573ffffffffffffffffffffffffffffffffffffffff191690602001909190505061036f565b005b34156100f957600080fd5b610125600480803573ffffffffffffffffffffffffffffffffffffffff169060200190919050506105bf565b005b341561013257600080fd5b61015e600480803573ffffffffffffffffffffffffffffffffffffffff169060200190919050506106a1565b005b341561016b57600080fd5b610197600480803573ffffffffffffffffffffffffffffffffffffffff169060200190919050506107e1565b005b34156101a457600080fd5b6101d0600480803573ffffffffffffffffffffffffffffffffffffffff169060200190919050506109e5565b005b34156101dd57600080fd5b6101e5610ac5565b604051808273ffffffffffffffffffffffffffffffffffffffff1673ffffffffffffffffffffffffffffffffffffffff16815260200191505060405180910390f35b341561023257600080fd5b6102486004808035906020019091905050610aeb565b005b341561025557600080fd5b61025d610b2e565b604051808273ffffffffffffffffffffffffffffffffffffffff1673ffffffffffffffffffffffffffffffffffffffff16815260200191505060405180910390f35b34156102aa57600080fd5b6102b2610b54565b6040518082815260200191505060405180910390f35b34156102d357600080fd5b610300600480803573ffffffffffffffffffffffffffffffffffffffff1916906020019091905050610b5a565b604051808215151515815260200191505060405180910390f35b341561032557600080fd5b61032d610b7a565b604051808273ffffffffffffffffffffffffffffffffffffffff1673ffffffffffffffffffffffffffffffffffffffff16815260200191505060405180910390f35b600460008273ffffffffffffffffffffffffffffffffffffffff191673ffffffffffffffffffffffffffffffffffffffff1916815260200190815260200160002060009054906101000a900460ff161515156103ca57600080fd5b600260009054906101000a900473ffffffffffffffffffffffffffffffffffffffff1673ffffffffffffffffffffffffffffffffffffffff166323b872dd33306003546000604051602001526040518463ffffffff167c0100000000000000000000000000000000000000000000000000000000028152600401808473ffffffffffffffffffffffffffffffffffffffff1673ffffffffffffffffffffffffffffffffffffffff1681526020018373ffffffffffffffffffffffffffffffffffffffff1673ffffffffffffffffffffffffffffffffffffffff1681526020018281526020019350505050602060405180830381600087803b15156104cd57600080fd5b6102c65a03f115156104de57600080fd5b5050506040518051905015156104f357600080fd5b6001600460008373ffffffffffffffffffffffffffffffffffffffff191673ffffffffffffffffffffffffffffffffffffffff1916815260200190815260200160002060006101000a81548160ff0219169083151502179055507f973b7d70095eb502152b69d76ed681070d87c19654ccdae8569e2625979c7cc981600354604051808373ffffffffffffffffffffffffffffffffffffffff191673ffffffffffffffffffffffffffffffffffffffff191681526020018281526020019250505060405180910390a150565b6105ed336000357fffffffff0000000000000000000000000000000000000000000000000000000016610b9f565b15156105f857600080fd5b80600160006101000a81548173ffffffffffffffffffffffffffffffffffffffff021916908373ffffffffffffffffffffffffffffffffffffffff160217905550600160009054906101000a900473ffffffffffffffffffffffffffffffffffffffff1673ffffffffffffffffffffffffffffffffffffffff167fce241d7ca1f669fee44b6fc00b8eba2df3bb514eed0f6f668f8f89096e81ed9460405160405180910390a250565b6106cf336000357fffffffff0000000000000000000000000000000000000000000000000000000016610b9f565b15156106da57600080fd5b6000600260009054906101000a900473ffffffffffffffffffffffffffffffffffffffff1673ffffffffffffffffffffffffffffffffffffffff166370a08231306000604051602001526040518263ffffffff167c0100000000000000000000000000000000000000000000000000000000028152600401808273ffffffffffffffffffffffffffffffffffffffff1673ffffffffffffffffffffffffffffffffffffffff168152602001915050602060405180830381600087803b15156107a157600080fd5b6102c65a03f115156107b257600080fd5b505050604051805190501415156107c857600080fd5b8073ffffffffffffffffffffffffffffffffffffffff16ff5b61080f336000357fffffffff0000000000000000000000000000000000000000000000000000000016610b9f565b151561081a57600080fd5b600260009054906101000a900473ffffffffffffffffffffffffffffffffffffffff1673ffffffffffffffffffffffffffffffffffffffff1663a9059cbb82600260009054906101000a900473ffffffffffffffffffffffffffffffffffffffff1673ffffffffffffffffffffffffffffffffffffffff166370a08231306000604051602001526040518263ffffffff167c0100000000000000000000000000000000000000000000000000000000028152600401808273ffffffffffffffffffffffffffffffffffffffff1673ffffffffffffffffffffffffffffffffffffffff168152602001915050602060405180830381600087803b151561091e57600080fd5b6102c65a03f1151561092f57600080fd5b505050604051805190506000604051602001526040518363ffffffff167c0100000000000000000000000000000000000000000000000000000000028152600401808373ffffffffffffffffffffffffffffffffffffffff1673ffffffffffffffffffffffffffffffffffffffff16815260200182815260200192505050602060405180830381600087803b15156109c657600080fd5b6102c65a03f115156109d757600080fd5b505050604051805190505050565b610a13336000357fffffffff0000000000000000000000000000000000000000000000000000000016610b9f565b1515610a1e57600080fd5b806000806101000a81548173ffffffffffffffffffffffffffffffffffffffff021916908373ffffffffffffffffffffffffffffffffffffffff1602179055506000809054906101000a900473ffffffffffffffffffffffffffffffffffffffff1673ffffffffffffffffffffffffffffffffffffffff167f1abebea81bfa2637f28358c371278fb15ede7ea8dd28d2e03b112ff6d936ada460405160405180910390a250565b600160009054906101000a900473ffffffffffffffffffffffffffffffffffffffff1681565b610b19336000357fffffffff0000000000000000000000000000000000000000000000000000000016610b9f565b1515610b2457600080fd5b8060038190555050565b600260009054906101000a900473ffffffffffffffffffffffffffffffffffffffff1681565b60035481565b60046020528060005260406000206000915054906101000a900460ff1681565b6000809054906101000a900473ffffffffffffffffffffffffffffffffffffffff1681565b60003073ffffffffffffffffffffffffffffffffffffffff168373ffffffffffffffffffffffffffffffffffffffff161415610bde5760019050610df8565b600160009054906101000a900473ffffffffffffffffffffffffffffffffffffffff1673ffffffffffffffffffffffffffffffffffffffff168373ffffffffffffffffffffffffffffffffffffffff161415610c3d5760019050610df8565b600073ffffffffffffffffffffffffffffffffffffffff166000809054906101000a900473ffffffffffffffffffffffffffffffffffffffff1673ffffffffffffffffffffffffffffffffffffffff161415610c9c5760009050610df8565b6000809054906101000a900473ffffffffffffffffffffffffffffffffffffffff1673ffffffffffffffffffffffffffffffffffffffff1663b70096138430856000604051602001526040518463ffffffff167c0100000000000000000000000000000000000000000000000000000000028152600401808473ffffffffffffffffffffffffffffffffffffffff1673ffffffffffffffffffffffffffffffffffffffff1681526020018373ffffffffffffffffffffffffffffffffffffffff1673ffffffffffffffffffffffffffffffffffffffff168152602001827bffffffffffffffffffffffffffffffffffffffffffffffffffffffff19167bffffffffffffffffffffffffffffffffffffffffffffffffffffffff191681526020019350505050602060405180830381600087803b1515610dda57600080fd5b6102c65a03f11515610deb57600080fd5b5050506040518051905090505b929150505600a165627a7a72305820c62beadca4802feb9cd683c97a3be92a47b7564104c2dfce8ea3276b876687a70029",
  "source": "pragma solidity ^0.4.2;\n\nimport \"./dappsys/math.sol\";\nimport \"./dappsys/token.sol\";\nimport \"./dappsys/auth.sol\";\n\n// This contract allows people to use VIEW tokens to publish videos on Viewly.\ncontract VideoPublisher is DSAuth, DSMath {\n\n    DSToken public viewToken;\n    uint public price;\n    mapping (bytes12 => bool) public videos;\n    event Published(\n        bytes12 videoID,\n        uint price\n    );\n\n    function VideoPublisher(DSToken viewToken_, uint price_) public {\n        viewToken = viewToken_;\n        price = price_;\n    }\n\n    function publish(bytes12 videoID) public {\n        require(!videos[videoID]);\n        require(viewToken.transferFrom(msg.sender, this, price));\n        videos[videoID] = true;\n        Published(videoID, price);\n    }\n\n    function setPrice(uint newPrice) public auth {\n        price = newPrice;\n    }\n\n    function withdraw(address addr) public auth {\n        viewToken.transfer(addr, viewToken.balanceOf(this));\n    }\n\n    function destruct(address addr) public auth {\n        require(viewToken.balanceOf(this) == 0);\n        selfdestruct(addr);\n    }\n\n    function () public payable {\n        revert();\n    }\n\n}\n",
  "sourcePath": "/home/user/GitHub/Viewly/platform-contracts/contracts/VideoPublisher.sol",
  "compiler": {
    "name": "solc",
    "version": "0.4.19+commit.c4cbbb05.Emscripten.clang"
  },
  "schemaVersion": "1.0.1",
  "updatedAt": "2018-03-12T22:55:30.919Z"
}