{
  "contractName": "VideoPublisher",
  "abi": [
    {
      "constant": false,
      "inputs": [
        {
          "name": "owner_",
          "type": "address"
        }
      ],
      "name": "setOwner",
      "outputs": [],
      "payable": false,
      "stateMutability": "nonpayable",
      "type": "function"
    },
    {
      "constant": true,
      "inputs": [],
      "name": "priceView",
      "outputs": [
        {
          "name": "",
          "type": "uint256"
        }
      ],
      "payable": false,
      "stateMutability": "view",
      "type": "function"
    },
    {
      "constant": true,
      "inputs": [],
      "name": "priceEth",
      "outputs": [
        {
          "name": "",
          "type": "uint256"
        }
      ],
      "payable": false,
      "stateMutability": "view",
      "type": "function"
    },
    {
      "constant": false,
      "inputs": [
        {
          "name": "authority_",
          "type": "address"
        }
      ],
      "name": "setAuthority",
      "outputs": [],
      "payable": false,
      "stateMutability": "nonpayable",
      "type": "function"
    },
    {
      "constant": true,
      "inputs": [],
      "name": "owner",
      "outputs": [
        {
          "name": "",
          "type": "address"
        }
      ],
      "payable": false,
      "stateMutability": "view",
      "type": "function"
    },
    {
      "constant": true,
      "inputs": [],
      "name": "viewToken",
      "outputs": [
        {
          "name": "",
          "type": "address"
        }
      ],
      "payable": false,
      "stateMutability": "view",
      "type": "function"
    },
    {
      "constant": true,
      "inputs": [
        {
          "name": "",
          "type": "bytes12"
        }
      ],
      "name": "videos",
      "outputs": [
        {
          "name": "",
          "type": "address"
        }
      ],
      "payable": false,
      "stateMutability": "view",
      "type": "function"
    },
    {
      "constant": true,
      "inputs": [],
      "name": "authority",
      "outputs": [
        {
          "name": "",
          "type": "address"
        }
      ],
      "payable": false,
      "stateMutability": "view",
      "type": "function"
    },
    {
      "inputs": [
        {
          "name": "viewToken_",
          "type": "address"
        },
        {
          "name": "priceView_",
          "type": "uint256"
        },
        {
          "name": "priceEth_",
          "type": "uint256"
        }
      ],
      "payable": false,
      "stateMutability": "nonpayable",
      "type": "constructor"
    },
    {
      "payable": true,
      "stateMutability": "payable",
      "type": "fallback"
    },
    {
      "anonymous": false,
      "inputs": [
        {
          "indexed": false,
          "name": "videoID",
          "type": "bytes12"
        }
      ],
      "name": "Published",
      "type": "event"
    },
    {
      "anonymous": false,
      "inputs": [
        {
          "indexed": true,
          "name": "authority",
          "type": "address"
        }
      ],
      "name": "LogSetAuthority",
      "type": "event"
    },
    {
      "anonymous": false,
      "inputs": [
        {
          "indexed": true,
          "name": "owner",
          "type": "address"
        }
      ],
      "name": "LogSetOwner",
      "type": "event"
    },
    {
      "constant": false,
      "inputs": [
        {
          "name": "videoID",
          "type": "bytes12"
        }
      ],
      "name": "publish",
      "outputs": [],
      "payable": true,
      "stateMutability": "payable",
      "type": "function"
    },
    {
      "constant": false,
      "inputs": [
        {
          "name": "videoID",
          "type": "bytes12"
        },
        {
          "name": "beneficiary",
          "type": "address"
        }
      ],
      "name": "publishFor",
      "outputs": [],
      "payable": true,
      "stateMutability": "payable",
      "type": "function"
    },
    {
      "constant": false,
      "inputs": [
        {
          "name": "priceView_",
          "type": "uint256"
        },
        {
          "name": "priceEth_",
          "type": "uint256"
        }
      ],
      "name": "setPrices",
      "outputs": [],
      "payable": false,
      "stateMutability": "nonpayable",
      "type": "function"
    },
    {
      "constant": false,
      "inputs": [
        {
          "name": "addr",
          "type": "address"
        }
      ],
      "name": "withdraw",
      "outputs": [],
      "payable": true,
      "stateMutability": "payable",
      "type": "function"
    },
    {
      "constant": false,
      "inputs": [
        {
          "name": "addr",
          "type": "address"
        }
      ],
      "name": "destruct",
      "outputs": [],
      "payable": true,
      "stateMutability": "payable",
      "type": "function"
    }
  ],
  "bytecode": "0x608060405234801561001057600080fd5b506040516060806114ca83398101806040528101908080519060200190929190805190602001909291908051906020019092919050505033600160006101000a81548173ffffffffffffffffffffffffffffffffffffffff021916908373ffffffffffffffffffffffffffffffffffffffff1602179055503373ffffffffffffffffffffffffffffffffffffffff167fce241d7ca1f669fee44b6fc00b8eba2df3bb514eed0f6f668f8f89096e81ed9460405160405180910390a282600260006101000a81548173ffffffffffffffffffffffffffffffffffffffff021916908373ffffffffffffffffffffffffffffffffffffffff160217905550816003819055508060048190555050505061139e8061012c6000396000f3006080604052600436106100c5576000357c0100000000000000000000000000000000000000000000000000000000900463ffffffff16806302400845146100ca57806305fefda71461010157806313af403514610138578063172e1e521461017b5780631beb2615146101a65780632ca38363146101dc57806351cff8d9146102075780635366f3381461023d5780637a9e5e4b146102945780638da5cb5b146102d75780639ab4833e1461032e578063a569b5c914610385578063bf7e214f14610409575b600080fd5b6100ff600480360381019080803573ffffffffffffffffffffffffffffffffffffffff19169060200190929190505050610460565b005b34801561010d57600080fd5b50610136600480360381019080803590602001909291908035906020019092919050505061072e565b005b34801561014457600080fd5b50610179600480360381019080803573ffffffffffffffffffffffffffffffffffffffff169060200190929190505050610779565b005b34801561018757600080fd5b5061019061085b565b6040518082815260200191505060405180910390f35b6101da600480360381019080803573ffffffffffffffffffffffffffffffffffffffff169060200190929190505050610861565b005b3480156101e857600080fd5b506101f16109df565b6040518082815260200191505060405180910390f35b61023b600480360381019080803573ffffffffffffffffffffffffffffffffffffffff1690602001909291905050506109e5565b005b610292600480360381019080803573ffffffffffffffffffffffffffffffffffffffff19169060200190929190803573ffffffffffffffffffffffffffffffffffffffff169060200190929190505050610ca8565b005b3480156102a057600080fd5b506102d5600480360381019080803573ffffffffffffffffffffffffffffffffffffffff169060200190929190505050610f77565b005b3480156102e357600080fd5b506102ec611057565b604051808273ffffffffffffffffffffffffffffffffffffffff1673ffffffffffffffffffffffffffffffffffffffff16815260200191505060405180910390f35b34801561033a57600080fd5b5061034361107d565b604051808273ffffffffffffffffffffffffffffffffffffffff1673ffffffffffffffffffffffffffffffffffffffff16815260200191505060405180910390f35b34801561039157600080fd5b506103c7600480360381019080803573ffffffffffffffffffffffffffffffffffffffff191690602001909291905050506110a3565b604051808273ffffffffffffffffffffffffffffffffffffffff1673ffffffffffffffffffffffffffffffffffffffff16815260200191505060405180910390f35b34801561041557600080fd5b5061041e6110d6565b604051808273ffffffffffffffffffffffffffffffffffffffff1673ffffffffffffffffffffffffffffffffffffffff16815260200191505060405180910390f35b6000600560008373ffffffffffffffffffffffffffffffffffffffff191673ffffffffffffffffffffffffffffffffffffffff1916815260200190815260200160002060009054906101000a900473ffffffffffffffffffffffffffffffffffffffff1673ffffffffffffffffffffffffffffffffffffffff161415156104e657600080fd5b600034141561063557600260009054906101000a900473ffffffffffffffffffffffffffffffffffffffff1673ffffffffffffffffffffffffffffffffffffffff166323b872dd33306003546040518463ffffffff167c0100000000000000000000000000000000000000000000000000000000028152600401808473ffffffffffffffffffffffffffffffffffffffff1673ffffffffffffffffffffffffffffffffffffffff1681526020018373ffffffffffffffffffffffffffffffffffffffff1673ffffffffffffffffffffffffffffffffffffffff1681526020018281526020019350505050602060405180830381600087803b1580156105ea57600080fd5b505af11580156105fe573d6000803e3d6000fd5b505050506040513d602081101561061457600080fd5b8101908080519060200190929190505050151561063057600080fd5b610647565b600454341015151561064657600080fd5b5b33600560008373ffffffffffffffffffffffffffffffffffffffff191673ffffffffffffffffffffffffffffffffffffffff1916815260200190815260200160002060006101000a81548173ffffffffffffffffffffffffffffffffffffffff021916908373ffffffffffffffffffffffffffffffffffffffff1602179055507e302e72c2158aa2cdb913b69cac1cb3d69cb26b4d49193877da56a9ca4a97de81604051808273ffffffffffffffffffffffffffffffffffffffff191673ffffffffffffffffffffffffffffffffffffffff1916815260200191505060405180910390a150565b61075c336000357fffffffff00000000000000000000000000000000000000000000000000000000166110fb565b151561076757600080fd5b81600381905550806004819055505050565b6107a7336000357fffffffff00000000000000000000000000000000000000000000000000000000166110fb565b15156107b257600080fd5b80600160006101000a81548173ffffffffffffffffffffffffffffffffffffffff021916908373ffffffffffffffffffffffffffffffffffffffff160217905550600160009054906101000a900473ffffffffffffffffffffffffffffffffffffffff1673ffffffffffffffffffffffffffffffffffffffff167fce241d7ca1f669fee44b6fc00b8eba2df3bb514eed0f6f668f8f89096e81ed9460405160405180910390a250565b60035481565b61088f336000357fffffffff00000000000000000000000000000000000000000000000000000000166110fb565b151561089a57600080fd5b60003073ffffffffffffffffffffffffffffffffffffffff16311415156108c057600080fd5b6000600260009054906101000a900473ffffffffffffffffffffffffffffffffffffffff1673ffffffffffffffffffffffffffffffffffffffff166370a08231306040518263ffffffff167c0100000000000000000000000000000000000000000000000000000000028152600401808273ffffffffffffffffffffffffffffffffffffffff1673ffffffffffffffffffffffffffffffffffffffff168152602001915050602060405180830381600087803b15801561097f57600080fd5b505af1158015610993573d6000803e3d6000fd5b505050506040513d60208110156109a957600080fd5b81019080805190602001909291905050501415156109c657600080fd5b8073ffffffffffffffffffffffffffffffffffffffff16ff5b60045481565b6000610a15336000357fffffffff00000000000000000000000000000000000000000000000000000000166110fb565b1515610a2057600080fd5b600260009054906101000a900473ffffffffffffffffffffffffffffffffffffffff1673ffffffffffffffffffffffffffffffffffffffff166370a08231306040518263ffffffff167c0100000000000000000000000000000000000000000000000000000000028152600401808273ffffffffffffffffffffffffffffffffffffffff1673ffffffffffffffffffffffffffffffffffffffff168152602001915050602060405180830381600087803b158015610add57600080fd5b505af1158015610af1573d6000803e3d6000fd5b505050506040513d6020811015610b0757600080fd5b810190808051906020019092919050505090506000811115610c2557600260009054906101000a900473ffffffffffffffffffffffffffffffffffffffff1673ffffffffffffffffffffffffffffffffffffffff1663a9059cbb83836040518363ffffffff167c0100000000000000000000000000000000000000000000000000000000028152600401808373ffffffffffffffffffffffffffffffffffffffff1673ffffffffffffffffffffffffffffffffffffffff16815260200182815260200192505050602060405180830381600087803b158015610be857600080fd5b505af1158015610bfc573d6000803e3d6000fd5b505050506040513d6020811015610c1257600080fd5b8101908080519060200190929190505050505b60003073ffffffffffffffffffffffffffffffffffffffff16311115610ca4578173ffffffffffffffffffffffffffffffffffffffff166108fc3073ffffffffffffffffffffffffffffffffffffffff16319081150290604051600060405180830381858888f19350505050158015610ca2573d6000803e3d6000fd5b505b5050565b6000600560008473ffffffffffffffffffffffffffffffffffffffff191673ffffffffffffffffffffffffffffffffffffffff1916815260200190815260200160002060009054906101000a900473ffffffffffffffffffffffffffffffffffffffff1673ffffffffffffffffffffffffffffffffffffffff16141515610d2e57600080fd5b6000341415610e7d57600260009054906101000a900473ffffffffffffffffffffffffffffffffffffffff1673ffffffffffffffffffffffffffffffffffffffff166323b872dd33306003546040518463ffffffff167c0100000000000000000000000000000000000000000000000000000000028152600401808473ffffffffffffffffffffffffffffffffffffffff1673ffffffffffffffffffffffffffffffffffffffff1681526020018373ffffffffffffffffffffffffffffffffffffffff1673ffffffffffffffffffffffffffffffffffffffff1681526020018281526020019350505050602060405180830381600087803b158015610e3257600080fd5b505af1158015610e46573d6000803e3d6000fd5b505050506040513d6020811015610e5c57600080fd5b81019080805190602001909291905050501515610e7857600080fd5b610e8f565b6004543410151515610e8e57600080fd5b5b80600560008473ffffffffffffffffffffffffffffffffffffffff191673ffffffffffffffffffffffffffffffffffffffff1916815260200190815260200160002060006101000a81548173ffffffffffffffffffffffffffffffffffffffff021916908373ffffffffffffffffffffffffffffffffffffffff1602179055507e302e72c2158aa2cdb913b69cac1cb3d69cb26b4d49193877da56a9ca4a97de82604051808273ffffffffffffffffffffffffffffffffffffffff191673ffffffffffffffffffffffffffffffffffffffff1916815260200191505060405180910390a15050565b610fa5336000357fffffffff00000000000000000000000000000000000000000000000000000000166110fb565b1515610fb057600080fd5b806000806101000a81548173ffffffffffffffffffffffffffffffffffffffff021916908373ffffffffffffffffffffffffffffffffffffffff1602179055506000809054906101000a900473ffffffffffffffffffffffffffffffffffffffff1673ffffffffffffffffffffffffffffffffffffffff167f1abebea81bfa2637f28358c371278fb15ede7ea8dd28d2e03b112ff6d936ada460405160405180910390a250565b600160009054906101000a900473ffffffffffffffffffffffffffffffffffffffff1681565b600260009054906101000a900473ffffffffffffffffffffffffffffffffffffffff1681565b60056020528060005260406000206000915054906101000a900473ffffffffffffffffffffffffffffffffffffffff1681565b6000809054906101000a900473ffffffffffffffffffffffffffffffffffffffff1681565b60003073ffffffffffffffffffffffffffffffffffffffff168373ffffffffffffffffffffffffffffffffffffffff16141561113a576001905061136c565b600160009054906101000a900473ffffffffffffffffffffffffffffffffffffffff1673ffffffffffffffffffffffffffffffffffffffff168373ffffffffffffffffffffffffffffffffffffffff161415611199576001905061136c565b600073ffffffffffffffffffffffffffffffffffffffff166000809054906101000a900473ffffffffffffffffffffffffffffffffffffffff1673ffffffffffffffffffffffffffffffffffffffff1614156111f8576000905061136c565b6000809054906101000a900473ffffffffffffffffffffffffffffffffffffffff1673ffffffffffffffffffffffffffffffffffffffff1663b70096138430856040518463ffffffff167c0100000000000000000000000000000000000000000000000000000000028152600401808473ffffffffffffffffffffffffffffffffffffffff1673ffffffffffffffffffffffffffffffffffffffff1681526020018373ffffffffffffffffffffffffffffffffffffffff1673ffffffffffffffffffffffffffffffffffffffff168152602001827bffffffffffffffffffffffffffffffffffffffffffffffffffffffff19167bffffffffffffffffffffffffffffffffffffffffffffffffffffffff191681526020019350505050602060405180830381600087803b15801561132e57600080fd5b505af1158015611342573d6000803e3d6000fd5b505050506040513d602081101561135857600080fd5b810190808051906020019092919050505090505b929150505600a165627a7a72305820680541472924cb1e545b1a1d2619165f23b38ae4e48d6677c339754c82a3ccc00029",
  "source": "pragma solidity ^0.4.24;\n\nimport \"./dappsys/math.sol\";\nimport \"./dappsys/token.sol\";\nimport \"./dappsys/auth.sol\";\n\n// Pay to publish videos on Viewly.\ncontract VideoPublisher is DSAuth, DSMath {\n\n    DSToken public viewToken;\n    uint public priceView;\n    uint public priceEth;\n    // videoID => publisher\n    mapping (bytes12 => address) public videos;\n    event Published(bytes12 videoID);\n\n    function VideoPublisher(\n        DSToken viewToken_,\n        uint priceView_,\n        uint priceEth_) public {\n        viewToken = viewToken_;\n        priceView = priceView_;\n        priceEth = priceEth_;\n    }\n\n    function publish(bytes12 videoID) payable public {\n        require(videos[videoID] == 0);\n        if (msg.value == 0) {\n            require(viewToken.transferFrom(msg.sender, address(this), priceView));\n        } else {\n            require(msg.value >= priceEth);\n        }\n        videos[videoID] = msg.sender;\n        emit Published(videoID);\n    }\n\n    function publishFor(bytes12 videoID, address beneficiary) payable public {\n        require(videos[videoID] == 0);\n        if (msg.value == 0) {\n            require(viewToken.transferFrom(msg.sender, address(this), priceView));\n        } else {\n            require(msg.value >= priceEth);\n        }\n        videos[videoID] = beneficiary;\n        emit Published(videoID);\n    }\n\n    function setPrices(uint priceView_, uint priceEth_) public auth {\n        priceView = priceView_;\n        priceEth = priceEth_;\n    }\n\n    function withdraw(address addr) public payable auth {\n        uint tokenBalance = viewToken.balanceOf(this);\n        if (tokenBalance > 0) {\n            viewToken.transfer(addr, tokenBalance);\n        }\n        if (address(this).balance > 0) {\n            addr.transfer(address(this).balance);\n        }\n    }\n\n    function destruct(address addr) public payable auth {\n        require(address(this).balance == 0);\n        require(viewToken.balanceOf(this) == 0);\n        selfdestruct(addr);\n    }\n\n    function () public payable {\n        revert();\n    }\n\n}\n",
  "sourcePath": "/home/user/GitHub/Viewly/platform-contracts/contracts/VideoPublisher.sol",
  "compiler": {
    "name": "solc",
    "version": "0.4.24+commit.e67f0147.Emscripten.clang"
  },
  "schemaVersion": "2.0.1",
  "updatedAt": "2018-06-25T08:49:01.673Z"
}