{
  "contractName": "ViewTokenMintage",
  "abi": [
    {
      "constant": false,
      "inputs": [
        {
          "name": "owner_",
          "type": "address"
        }
      ],
      "name": "setOwner",
      "outputs": [],
      "payable": false,
      "stateMutability": "nonpayable",
      "type": "function"
    },
    {
      "constant": false,
      "inputs": [
        {
          "name": "authority_",
          "type": "address"
        }
      ],
      "name": "setAuthority",
      "outputs": [],
      "payable": false,
      "stateMutability": "nonpayable",
      "type": "function"
    },
    {
      "constant": true,
      "inputs": [],
      "name": "owner",
      "outputs": [
        {
          "name": "",
          "type": "address"
        }
      ],
      "payable": false,
      "stateMutability": "view",
      "type": "function"
    },
    {
      "constant": true,
      "inputs": [],
      "name": "viewToken",
      "outputs": [
        {
          "name": "",
          "type": "address"
        }
      ],
      "payable": false,
      "stateMutability": "view",
      "type": "function"
    },
    {
      "constant": true,
      "inputs": [],
      "name": "authority",
      "outputs": [
        {
          "name": "",
          "type": "address"
        }
      ],
      "payable": false,
      "stateMutability": "view",
      "type": "function"
    },
    {
      "constant": true,
      "inputs": [
        {
          "name": "",
          "type": "uint256"
        }
      ],
      "name": "categories",
      "outputs": [
        {
          "name": "mintLimit",
          "type": "uint256"
        },
        {
          "name": "amountMinted",
          "type": "uint256"
        }
      ],
      "payable": false,
      "stateMutability": "view",
      "type": "function"
    },
    {
      "inputs": [
        {
          "name": "viewToken_",
          "type": "address"
        }
      ],
      "payable": false,
      "stateMutability": "nonpayable",
      "type": "constructor"
    },
    {
      "anonymous": false,
      "inputs": [
        {
          "indexed": false,
          "name": "recipient",
          "type": "address"
        },
        {
          "indexed": false,
          "name": "tokens",
          "type": "uint256"
        },
        {
          "indexed": false,
          "name": "category",
          "type": "uint8"
        }
      ],
      "name": "TokensMinted",
      "type": "event"
    },
    {
      "anonymous": false,
      "inputs": [
        {
          "indexed": true,
          "name": "authority",
          "type": "address"
        }
      ],
      "name": "LogSetAuthority",
      "type": "event"
    },
    {
      "anonymous": false,
      "inputs": [
        {
          "indexed": true,
          "name": "owner",
          "type": "address"
        }
      ],
      "name": "LogSetOwner",
      "type": "event"
    },
    {
      "constant": false,
      "inputs": [
        {
          "name": "recipient",
          "type": "address"
        },
        {
          "name": "tokens",
          "type": "uint256"
        },
        {
          "name": "categoryId",
          "type": "uint8"
        }
      ],
      "name": "mint",
      "outputs": [],
      "payable": false,
      "stateMutability": "nonpayable",
      "type": "function"
    },
    {
      "constant": false,
      "inputs": [
        {
          "name": "addr",
          "type": "address"
        }
      ],
      "name": "destruct",
      "outputs": [],
      "payable": false,
      "stateMutability": "nonpayable",
      "type": "function"
    },
    {
      "constant": true,
      "inputs": [],
      "name": "totalMintLimit",
      "outputs": [
        {
          "name": "total",
          "type": "uint256"
        }
      ],
      "payable": false,
      "stateMutability": "view",
      "type": "function"
    }
  ],
  "bytecode": "0x606060405234156200001057600080fd5b60405160208062000fa383398101604052808051906020019091905050600033600160006101000a81548173ffffffffffffffffffffffffffffffffffffffff021916908373ffffffffffffffffffffffffffffffffffffffff1602179055503373ffffffffffffffffffffffffffffffffffffffff167fce241d7ca1f669fee44b6fc00b8eba2df3bb514eed0f6f668f8f89096e81ed9460405160405180910390a281600260006101000a81548173ffffffffffffffffffffffffffffffffffffffff021916908373ffffffffffffffffffffffffffffffffffffffff16021790555069d3c21bcecceda10000009050604080519081016040528082601202815260200160008152506003600060058111156200012a57fe5b60ff166006811015156200013a57fe5b600202016000820151816000015560208201518160010155905050604080519081016040528082600902815260200160008152506003600160058111156200017e57fe5b60ff166006811015156200018e57fe5b60020201600082015181600001556020820151816001015590505060408051908101604052808260140281526020016000815250600360026005811115620001d257fe5b60ff16600681101515620001e257fe5b600202016000820151816000015560208201518160010155905050604080519081016040528082600302815260200169180a5d7e86e082e0000081525060038060058111156200022e57fe5b60ff166006811015156200023e57fe5b600202016000820151816000015560208201518160010155905050604080519081016040528082600a02815260200182600a028152506003600460058111156200028457fe5b60ff166006811015156200029457fe5b600202016000820151816000015560208201518160010155905050604080519081016040528082602802815260200160008152506003600580811115620002d757fe5b60ff16600681101515620002e757fe5b600202016000820151816000015560208201518160010155905050806064026200032462000336640100000000026200076c176401000000009004565b1415156200032e57fe5b5050620003b9565b600080600090505b60068160ff1610156200039557620003858260038360ff166006811015156200036357fe5b60020201600001546200039c6401000000000262000b92176401000000009004565b915080806001019150506200033e565b8191505090565b60008282840191508110151515620003b357600080fd5b92915050565b610bda80620003c96000396000f300606060405260043610610099576000357c0100000000000000000000000000000000000000000000000000000000900463ffffffff16806313af40351461009e5780631beb2615146100d75780636112e8ac1461011057806376dd1f861461015e5780637a9e5e4b146101875780638da5cb5b146101c05780639ab4833e14610215578063bf7e214f1461026a578063c6cdbe5e146102bf575b600080fd5b34156100a957600080fd5b6100d5600480803573ffffffffffffffffffffffffffffffffffffffff169060200190919050506102fd565b005b34156100e257600080fd5b61010e600480803573ffffffffffffffffffffffffffffffffffffffff169060200190919050506103df565b005b341561011b57600080fd5b61015c600480803573ffffffffffffffffffffffffffffffffffffffff1690602001909190803590602001909190803560ff16906020019091905050610431565b005b341561016957600080fd5b61017161076c565b6040518082815260200191505060405180910390f35b341561019257600080fd5b6101be600480803573ffffffffffffffffffffffffffffffffffffffff169060200190919050506107b9565b005b34156101cb57600080fd5b6101d3610899565b604051808273ffffffffffffffffffffffffffffffffffffffff1673ffffffffffffffffffffffffffffffffffffffff16815260200191505060405180910390f35b341561022057600080fd5b6102286108bf565b604051808273ffffffffffffffffffffffffffffffffffffffff1673ffffffffffffffffffffffffffffffffffffffff16815260200191505060405180910390f35b341561027557600080fd5b61027d6108e5565b604051808273ffffffffffffffffffffffffffffffffffffffff1673ffffffffffffffffffffffffffffffffffffffff16815260200191505060405180910390f35b34156102ca57600080fd5b6102e0600480803590602001909190505061090a565b604051808381526020018281526020019250505060405180910390f35b61032b336000357fffffffff0000000000000000000000000000000000000000000000000000000016610933565b151561033657600080fd5b80600160006101000a81548173ffffffffffffffffffffffffffffffffffffffff021916908373ffffffffffffffffffffffffffffffffffffffff160217905550600160009054906101000a900473ffffffffffffffffffffffffffffffffffffffff1673ffffffffffffffffffffffffffffffffffffffff167fce241d7ca1f669fee44b6fc00b8eba2df3bb514eed0f6f668f8f89096e81ed9460405160405180910390a250565b61040d336000357fffffffff0000000000000000000000000000000000000000000000000000000016610933565b151561041857600080fd5b8073ffffffffffffffffffffffffffffffffffffffff16ff5b6000610461336000357fffffffff0000000000000000000000000000000000000000000000000000000016610933565b151561046c57600080fd5b60008311151561047b57600080fd5b600382600581111561048957fe5b60ff1660068110151561049857fe5b60020201905080600001546104b1848360010154610b92565b111515156104be57600080fd5b8260038360058111156104cd57fe5b60ff166006811015156104dc57fe5b6002020160010160008282540192505081905550600260009054906101000a900473ffffffffffffffffffffffffffffffffffffffff1673ffffffffffffffffffffffffffffffffffffffff166340c10f1930856040518363ffffffff167c0100000000000000000000000000000000000000000000000000000000028152600401808373ffffffffffffffffffffffffffffffffffffffff1673ffffffffffffffffffffffffffffffffffffffff16815260200182815260200192505050600060405180830381600087803b15156105b457600080fd5b6102c65a03f115156105c557600080fd5b505050600260009054906101000a900473ffffffffffffffffffffffffffffffffffffffff1673ffffffffffffffffffffffffffffffffffffffff166323b872dd3086866000604051602001526040518463ffffffff167c0100000000000000000000000000000000000000000000000000000000028152600401808473ffffffffffffffffffffffffffffffffffffffff1673ffffffffffffffffffffffffffffffffffffffff1681526020018373ffffffffffffffffffffffffffffffffffffffff1673ffffffffffffffffffffffffffffffffffffffff1681526020018281526020019350505050602060405180830381600087803b15156106c957600080fd5b6102c65a03f115156106da57600080fd5b50505060405180519050507f76d60a91a67c624bb26c8f8d753854f29a83ca2f9b903c6bd8ad5d9042424517848484604051808473ffffffffffffffffffffffffffffffffffffffff1673ffffffffffffffffffffffffffffffffffffffff16815260200183815260200182600581111561075157fe5b60ff168152602001935050505060405180910390a150505050565b600080600090505b60068160ff1610156107b2576107a38260038360ff1660068110151561079657fe5b6002020160000154610b92565b91508080600101915050610774565b8191505090565b6107e7336000357fffffffff0000000000000000000000000000000000000000000000000000000016610933565b15156107f257600080fd5b806000806101000a81548173ffffffffffffffffffffffffffffffffffffffff021916908373ffffffffffffffffffffffffffffffffffffffff1602179055506000809054906101000a900473ffffffffffffffffffffffffffffffffffffffff1673ffffffffffffffffffffffffffffffffffffffff167f1abebea81bfa2637f28358c371278fb15ede7ea8dd28d2e03b112ff6d936ada460405160405180910390a250565b600160009054906101000a900473ffffffffffffffffffffffffffffffffffffffff1681565b600260009054906101000a900473ffffffffffffffffffffffffffffffffffffffff1681565b6000809054906101000a900473ffffffffffffffffffffffffffffffffffffffff1681565b60038160068110151561091957fe5b600202016000915090508060000154908060010154905082565b60003073ffffffffffffffffffffffffffffffffffffffff168373ffffffffffffffffffffffffffffffffffffffff1614156109725760019050610b8c565b600160009054906101000a900473ffffffffffffffffffffffffffffffffffffffff1673ffffffffffffffffffffffffffffffffffffffff168373ffffffffffffffffffffffffffffffffffffffff1614156109d15760019050610b8c565b600073ffffffffffffffffffffffffffffffffffffffff166000809054906101000a900473ffffffffffffffffffffffffffffffffffffffff1673ffffffffffffffffffffffffffffffffffffffff161415610a305760009050610b8c565b6000809054906101000a900473ffffffffffffffffffffffffffffffffffffffff1673ffffffffffffffffffffffffffffffffffffffff1663b70096138430856000604051602001526040518463ffffffff167c0100000000000000000000000000000000000000000000000000000000028152600401808473ffffffffffffffffffffffffffffffffffffffff1673ffffffffffffffffffffffffffffffffffffffff1681526020018373ffffffffffffffffffffffffffffffffffffffff1673ffffffffffffffffffffffffffffffffffffffff168152602001827bffffffffffffffffffffffffffffffffffffffffffffffffffffffff19167bffffffffffffffffffffffffffffffffffffffffffffffffffffffff191681526020019350505050602060405180830381600087803b1515610b6e57600080fd5b6102c65a03f11515610b7f57600080fd5b5050506040518051905090505b92915050565b60008282840191508110151515610ba857600080fd5b929150505600a165627a7a723058202383a9f1494470ec16523df914802de8b9f3f60d47ad7a9219b8350ac0003f1e0029",
  "source": "// The MIT License (MIT)\n// Copyright (c) 2017 Viewly (https://view.ly)\n\npragma solidity ^0.4.18;\n\nimport \"./dappsys/math.sol\";\nimport \"./dappsys/token.sol\";\nimport \"./dappsys/auth.sol\";\n\n/*\n * ViewTokenMintage contract is used to mint VIEW Tokens within the\n * constraints set in the Viewly Whitepaper. It tracks total minted tokens for\n * each distribution category.\n */\ncontract ViewTokenMintage is DSAuth, DSMath {\n\n    enum CategoryId {\n        Team,\n        Supporters,\n        Creators,\n        Bounties,\n        SeedSale,\n        MainSale\n    }\n\n    struct Category {\n        uint mintLimit;\n        uint amountMinted;\n    }\n\n    DSToken public viewToken;\n    Category[6] public categories;\n\n    event TokensMinted(\n        address recipient,\n        uint tokens,\n        CategoryId category\n    );\n\n    function ViewTokenMintage(DSToken viewToken_) public {\n        viewToken = viewToken_;\n\n        uint MILLION = 1000000 ether;\n        categories[uint8(CategoryId.Team)]       = Category(18 * MILLION, 0 ether);\n        categories[uint8(CategoryId.Supporters)] = Category(9 * MILLION, 0 ether);\n        categories[uint8(CategoryId.Creators)]   = Category(20 * MILLION, 0 ether);\n        categories[uint8(CategoryId.Bounties)]   = Category(3 * MILLION, 113528 ether);\n        categories[uint8(CategoryId.SeedSale)]   = Category(10 * MILLION, 10 * MILLION);\n        categories[uint8(CategoryId.MainSale)]   = Category(40 * MILLION, 0 ether);\n\n        // Total VIEW token mintage supply must be limited to exactly 100M\n        assert(totalMintLimit() == 100 * MILLION);\n    }\n\n    function mint(address recipient, uint tokens, CategoryId categoryId) public auth {\n        require(tokens > 0);\n        Category storage category = categories[uint8(categoryId)];\n        require(add(tokens, category.amountMinted) <= category.mintLimit);\n\n        categories[uint8(categoryId)].amountMinted += tokens;\n        viewToken.mint(this, tokens);\n        viewToken.transferFrom(this, recipient, tokens);\n        TokensMinted(recipient, tokens, categoryId);\n    }\n\n    function destruct(address addr) public auth {\n        selfdestruct(addr);\n    }\n\n    function totalMintLimit() public view returns (uint total) {\n      for (uint8 i = 0; i < categories.length; i ++) {\n        total = add(total, categories[i].mintLimit);\n      }\n\n      return total;\n    }\n}\n",
  "sourcePath": "/home/user/GitHub/Viewly/platform-contracts/contracts/view_token_mintage.sol",
  "compiler": {
    "name": "solc",
    "version": "0.4.19+commit.c4cbbb05.Emscripten.clang"
  },
  "schemaVersion": "1.0.1",
  "updatedAt": "2018-03-01T01:38:31.946Z"
}