{
  "contractName": "VotingPowerDelegator",
  "abi": [
    {
      "constant": true,
      "inputs": [
        {
          "name": "",
          "type": "address"
        }
      ],
      "name": "delegations",
      "outputs": [
        {
          "name": "",
          "type": "address"
        }
      ],
      "payable": false,
      "stateMutability": "view",
      "type": "function"
    },
    {
      "constant": true,
      "inputs": [
        {
          "name": "",
          "type": "address"
        }
      ],
      "name": "delegatedAt",
      "outputs": [
        {
          "name": "",
          "type": "uint256"
        }
      ],
      "payable": false,
      "stateMutability": "view",
      "type": "function"
    },
    {
      "inputs": [],
      "payable": false,
      "stateMutability": "nonpayable",
      "type": "constructor"
    },
    {
      "payable": true,
      "stateMutability": "payable",
      "type": "fallback"
    },
    {
      "anonymous": false,
      "inputs": [
        {
          "indexed": false,
          "name": "delegator",
          "type": "address"
        },
        {
          "indexed": false,
          "name": "beneficiary",
          "type": "address"
        }
      ],
      "name": "Delegated",
      "type": "event"
    },
    {
      "constant": false,
      "inputs": [
        {
          "name": "beneficiary",
          "type": "address"
        }
      ],
      "name": "delegate",
      "outputs": [],
      "payable": false,
      "stateMutability": "nonpayable",
      "type": "function"
    }
  ],
  "bytecode": "0x608060405234801561001057600080fd5b50610384806100206000396000f300608060405260043610610057576000357c0100000000000000000000000000000000000000000000000000000000900463ffffffff1680635c19a95c1461005c578063bffe34861461009f578063fd13b7b214610122575b600080fd5b34801561006857600080fd5b5061009d600480360381019080803573ffffffffffffffffffffffffffffffffffffffff169060200190929190505050610179565b005b3480156100ab57600080fd5b506100e0600480360381019080803573ffffffffffffffffffffffffffffffffffffffff16906020019092919050505061030d565b604051808273ffffffffffffffffffffffffffffffffffffffff1673ffffffffffffffffffffffffffffffffffffffff16815260200191505060405180910390f35b34801561012e57600080fd5b50610163600480360381019080803573ffffffffffffffffffffffffffffffffffffffff169060200190929190505050610340565b6040518082815260200191505060405180910390f35b3373ffffffffffffffffffffffffffffffffffffffff168173ffffffffffffffffffffffffffffffffffffffff1614156101b257600090505b806000803373ffffffffffffffffffffffffffffffffffffffff1673ffffffffffffffffffffffffffffffffffffffff16815260200190815260200160002060006101000a81548173ffffffffffffffffffffffffffffffffffffffff021916908373ffffffffffffffffffffffffffffffffffffffff16021790555042600160003373ffffffffffffffffffffffffffffffffffffffff1673ffffffffffffffffffffffffffffffffffffffff168152602001908152602001600020819055507f4bc154dd35d6a5cb9206482ecb473cdbf2473006d6bce728b9cc0741bcc59ea23382604051808373ffffffffffffffffffffffffffffffffffffffff1673ffffffffffffffffffffffffffffffffffffffff1681526020018273ffffffffffffffffffffffffffffffffffffffff1673ffffffffffffffffffffffffffffffffffffffff1681526020019250505060405180910390a150565b60006020528060005260406000206000915054906101000a900473ffffffffffffffffffffffffffffffffffffffff1681565b600160205280600052604060002060009150905054815600a165627a7a72305820dd77509105b7e4d345ca11d37d97646c9b38a182367e37512c69005947e4e9530029",
  "source": "pragma solidity ^0.4.24;\n\n// Delegate voting power for stake based voting and governance.\n// Enables safe in-app voting participation, by letting users\n// delegate their cold wallet VP to a convenient hot wallet.\ncontract VotingPowerDelegator {\n    // delegator => beneficiary\n    mapping (address => address) public delegations;\n    mapping (address => uint)    public delegatedAt;\n    event Delegated(address delegator, address beneficiary);\n\n    constructor() public { }\n\n    function delegate(address beneficiary) public {\n        if (beneficiary == msg.sender) {\n            beneficiary = 0;\n        }\n        delegations[msg.sender] = beneficiary;\n        delegatedAt[msg.sender] = now;\n        emit Delegated(msg.sender, beneficiary);\n    }\n\n    function () public payable {\n        revert();\n    }\n}\n",
  "sourcePath": "/home/user/GitHub/Viewly/platform-contracts/contracts/VotingPowerDelegator.sol",
  "compiler": {
    "name": "solc",
    "version": "0.4.24+commit.e67f0147.Emscripten.clang"
  },
  "schemaVersion": "2.0.1",
  "updatedAt": "2018-07-16T17:49:57.127Z"
}